{
  "_format": "hh-sol-artifact-1",
  "contractName": "RockPaperScissorsGame",
  "sourceName": "contracts/Game.sol",
  "abi": [
    {
      "inputs": [
        {
          "internalType": "address",
          "name": "_outgoingCommunicationContract",
          "type": "address"
        },
        {
          "internalType": "address",
          "name": "_incomingCommunicationContract",
          "type": "address"
        },
        {
          "internalType": "address[]",
          "name": "_gameContractAddresses",
          "type": "address[]"
        },
        {
          "internalType": "uint256[]",
          "name": "_chainIDs",
          "type": "uint256[]"
        }
      ],
      "stateMutability": "nonpayable",
      "type": "constructor"
    },
    {
      "inputs": [
        {
          "internalType": "address",
          "name": "owner",
          "type": "address"
        }
      ],
      "name": "OwnableInvalidOwner",
      "type": "error"
    },
    {
      "inputs": [
        {
          "internalType": "address",
          "name": "account",
          "type": "address"
        }
      ],
      "name": "OwnableUnauthorizedAccount",
      "type": "error"
    },
    {
      "anonymous": false,
      "inputs": [
        {
          "components": [
            {
              "internalType": "uint256",
              "name": "id",
              "type": "uint256"
            },
            {
              "internalType": "uint256",
              "name": "nMoves",
              "type": "uint256"
            },
            {
              "internalType": "address",
              "name": "player1",
              "type": "address"
            },
            {
              "internalType": "uint256",
              "name": "player1ChainID",
              "type": "uint256"
            },
            {
              "internalType": "address",
              "name": "player2",
              "type": "address"
            },
            {
              "internalType": "uint256",
              "name": "player2ChainID",
              "type": "uint256"
            },
            {
              "internalType": "enum RockPaperScissorsGame.Move",
              "name": "player1Move",
              "type": "uint8"
            },
            {
              "internalType": "enum RockPaperScissorsGame.Move",
              "name": "player2Move",
              "type": "uint8"
            },
            {
              "internalType": "enum RockPaperScissorsGame.Result",
              "name": "result",
              "type": "uint8"
            },
            {
              "internalType": "uint16",
              "name": "blocksForFinality",
              "type": "uint16"
            },
            {
              "internalType": "uint256",
              "name": "player1Bet",
              "type": "uint256"
            },
            {
              "internalType": "uint256",
              "name": "player2Bet",
              "type": "uint256"
            }
          ],
          "indexed": false,
          "internalType": "struct RockPaperScissorsGame.Game",
          "name": "finishedGame",
          "type": "tuple"
        }
      ],
      "name": "GameResult",
      "type": "event"
    },
    {
      "anonymous": false,
      "inputs": [
        {
          "indexed": false,
          "internalType": "uint256",
          "name": "gameId",
          "type": "uint256"
        },
        {
          "indexed": false,
          "internalType": "uint256",
          "name": "gameSourceChainId",
          "type": "uint256"
        },
        {
          "indexed": false,
          "internalType": "enum RockPaperScissorsGame.Move",
          "name": "move",
          "type": "uint8"
        }
      ],
      "name": "MoveReceived",
      "type": "event"
    },
    {
      "anonymous": false,
      "inputs": [
        {
          "indexed": true,
          "internalType": "address",
          "name": "previousOwner",
          "type": "address"
        },
        {
          "indexed": true,
          "internalType": "address",
          "name": "newOwner",
          "type": "address"
        }
      ],
      "name": "OwnershipTransferred",
      "type": "event"
    },
    {
      "inputs": [
        {
          "internalType": "uint256",
          "name": "",
          "type": "uint256"
        }
      ],
      "name": "gameContractAddresses",
      "outputs": [
        {
          "internalType": "address",
          "name": "",
          "type": "address"
        }
      ],
      "stateMutability": "view",
      "type": "function"
    },
    {
      "inputs": [
        {
          "internalType": "uint256",
          "name": "",
          "type": "uint256"
        }
      ],
      "name": "gameCounter",
      "outputs": [
        {
          "internalType": "uint256",
          "name": "",
          "type": "uint256"
        }
      ],
      "stateMutability": "view",
      "type": "function"
    },
    {
      "inputs": [
        {
          "internalType": "uint256",
          "name": "",
          "type": "uint256"
        },
        {
          "internalType": "uint256",
          "name": "",
          "type": "uint256"
        }
      ],
      "name": "games",
      "outputs": [
        {
          "internalType": "uint256",
          "name": "id",
          "type": "uint256"
        },
        {
          "internalType": "uint256",
          "name": "nMoves",
          "type": "uint256"
        },
        {
          "internalType": "address",
          "name": "player1",
          "type": "address"
        },
        {
          "internalType": "uint256",
          "name": "player1ChainID",
          "type": "uint256"
        },
        {
          "internalType": "address",
          "name": "player2",
          "type": "address"
        },
        {
          "internalType": "uint256",
          "name": "player2ChainID",
          "type": "uint256"
        },
        {
          "internalType": "enum RockPaperScissorsGame.Move",
          "name": "player1Move",
          "type": "uint8"
        },
        {
          "internalType": "enum RockPaperScissorsGame.Move",
          "name": "player2Move",
          "type": "uint8"
        },
        {
          "internalType": "enum RockPaperScissorsGame.Result",
          "name": "result",
          "type": "uint8"
        },
        {
          "internalType": "uint16",
          "name": "blocksForFinality",
          "type": "uint16"
        },
        {
          "internalType": "uint256",
          "name": "player1Bet",
          "type": "uint256"
        },
        {
          "internalType": "uint256",
          "name": "player2Bet",
          "type": "uint256"
        }
      ],
      "stateMutability": "view",
      "type": "function"
    },
    {
      "inputs": [],
      "name": "incomingCommunicationContract",
      "outputs": [
        {
          "internalType": "address",
          "name": "",
          "type": "address"
        }
      ],
      "stateMutability": "view",
      "type": "function"
    },
    {
      "inputs": [],
      "name": "outgoingCommunicationContract",
      "outputs": [
        {
          "internalType": "address",
          "name": "",
          "type": "address"
        }
      ],
      "stateMutability": "view",
      "type": "function"
    },
    {
      "inputs": [],
      "name": "owner",
      "outputs": [
        {
          "internalType": "address",
          "name": "",
          "type": "address"
        }
      ],
      "stateMutability": "view",
      "type": "function"
    },
    {
      "inputs": [
        {
          "internalType": "address",
          "name": "_gameContractAddress",
          "type": "address"
        },
        {
          "internalType": "uint256",
          "name": "_chainID",
          "type": "uint256"
        },
        {
          "internalType": "bytes",
          "name": "data",
          "type": "bytes"
        }
      ],
      "name": "receiveMsg",
      "outputs": [],
      "stateMutability": "nonpayable",
      "type": "function"
    },
    {
      "inputs": [],
      "name": "renounceOwnership",
      "outputs": [],
      "stateMutability": "nonpayable",
      "type": "function"
    },
    {
      "inputs": [
        {
          "internalType": "address",
          "name": "_player2",
          "type": "address"
        },
        {
          "internalType": "uint256",
          "name": "_player2ChainID",
          "type": "uint256"
        },
        {
          "internalType": "enum RockPaperScissorsGame.Move",
          "name": "_move",
          "type": "uint8"
        },
        {
          "internalType": "uint16",
          "name": "_blocksForFinality",
          "type": "uint16"
        },
        {
          "internalType": "uint256",
          "name": "_player2Bet",
          "type": "uint256"
        }
      ],
      "name": "startGame",
      "outputs": [],
      "stateMutability": "payable",
      "type": "function"
    },
    {
      "inputs": [
        {
          "internalType": "uint256",
          "name": "_gameId",
          "type": "uint256"
        },
        {
          "internalType": "uint256",
          "name": "_gameSourceChainId",
          "type": "uint256"
        },
        {
          "internalType": "enum RockPaperScissorsGame.Move",
          "name": "_move",
          "type": "uint8"
        }
      ],
      "name": "submitMove",
      "outputs": [],
      "stateMutability": "payable",
      "type": "function"
    },
    {
      "inputs": [
        {
          "internalType": "address",
          "name": "newOwner",
          "type": "address"
        }
      ],
      "name": "transferOwnership",
      "outputs": [],
      "stateMutability": "nonpayable",
      "type": "function"
    },
    {
      "inputs": [
        {
          "internalType": "uint256",
          "name": "_chainId",
          "type": "uint256"
        },
        {
          "internalType": "address",
          "name": "_address",
          "type": "address"
        }
      ],
      "name": "updateGameContractAddress",
      "outputs": [],
      "stateMutability": "nonpayable",
      "type": "function"
    },
    {
      "inputs": [
        {
          "internalType": "address",
          "name": "_newAddress",
          "type": "address"
        }
      ],
      "name": "updateIncomingCommunicationContract",
      "outputs": [],
      "stateMutability": "nonpayable",
      "type": "function"
    },
    {
      "inputs": [
        {
          "internalType": "address",
          "name": "_newAddress",
          "type": "address"
        }
      ],
      "name": "updateOutgoingCommunicationContract",
      "outputs": [],
      "stateMutability": "nonpayable",
      "type": "function"
    }
  ],
  "bytecode": "0x608060405234801561001057600080fd5b5060405161404b38038061404b83398181016040528101906100329190610568565b33600073ffffffffffffffffffffffffffffffffffffffff168173ffffffffffffffffffffffffffffffffffffffff16036100a55760006040517f1e4fbdf700000000000000000000000000000000000000000000000000000000815260040161009c9190610616565b60405180910390fd5b6100b4816101e060201b60201c565b5083600360006101000a81548173ffffffffffffffffffffffffffffffffffffffff021916908373ffffffffffffffffffffffffffffffffffffffff16021790555082600460006101000a81548173ffffffffffffffffffffffffffffffffffffffff021916908373ffffffffffffffffffffffffffffffffffffffff16021790555060005b82518110156101d65782818151811061015657610155610631565b5b60200260200101516005600084848151811061017557610174610631565b5b6020026020010151815260200190815260200160002060006101000a81548173ffffffffffffffffffffffffffffffffffffffff021916908373ffffffffffffffffffffffffffffffffffffffff160217905550808060010191505061013a565b5050505050610660565b60008060009054906101000a900473ffffffffffffffffffffffffffffffffffffffff169050816000806101000a81548173ffffffffffffffffffffffffffffffffffffffff021916908373ffffffffffffffffffffffffffffffffffffffff1602179055508173ffffffffffffffffffffffffffffffffffffffff168173ffffffffffffffffffffffffffffffffffffffff167f8be0079c531659141344cd1fd0a4f28419497f9722a3daafe3b4186f6b6457e060405160405180910390a35050565b6000604051905090565b600080fd5b600080fd5b600073ffffffffffffffffffffffffffffffffffffffff82169050919050565b60006102e3826102b8565b9050919050565b6102f3816102d8565b81146102fe57600080fd5b50565b600081519050610310816102ea565b92915050565b600080fd5b6000601f19601f8301169050919050565b7f4e487b7100000000000000000000000000000000000000000000000000000000600052604160045260246000fd5b6103648261031b565b810181811067ffffffffffffffff821117156103835761038261032c565b5b80604052505050565b60006103966102a4565b90506103a2828261035b565b919050565b600067ffffffffffffffff8211156103c2576103c161032c565b5b602082029050602081019050919050565b600080fd5b60006103eb6103e6846103a7565b61038c565b9050808382526020820190506020840283018581111561040e5761040d6103d3565b5b835b8181101561043757806104238882610301565b845260208401935050602081019050610410565b5050509392505050565b600082601f83011261045657610455610316565b5b81516104668482602086016103d8565b91505092915050565b600067ffffffffffffffff82111561048a5761048961032c565b5b602082029050602081019050919050565b6000819050919050565b6104ae8161049b565b81146104b957600080fd5b50565b6000815190506104cb816104a5565b92915050565b60006104e46104df8461046f565b61038c565b90508083825260208201905060208402830185811115610507576105066103d3565b5b835b81811015610530578061051c88826104bc565b845260208401935050602081019050610509565b5050509392505050565b600082601f83011261054f5761054e610316565b5b815161055f8482602086016104d1565b91505092915050565b60008060008060808587031215610582576105816102ae565b5b600061059087828801610301565b94505060206105a187828801610301565b935050604085015167ffffffffffffffff8111156105c2576105c16102b3565b5b6105ce87828801610441565b925050606085015167ffffffffffffffff8111156105ef576105ee6102b3565b5b6105fb8782880161053a565b91505092959194509250565b610610816102d8565b82525050565b600060208201905061062b6000830184610607565b92915050565b7f4e487b7100000000000000000000000000000000000000000000000000000000600052603260045260246000fd5b6139dc8061066f6000396000f3fe6080604052600436106100dd5760003560e01c8063c09070131161007f578063dedfb13b11610059578063dedfb13b14610277578063e5539406146102b4578063f2fde38b146102fc578063f41486a714610325576100dd565b8063c0907013146101fa578063ca6718b614610223578063d0c48ac51461024c576100dd565b80638da5cb5b116100bb5780638da5cb5b1461015f578063908ab4b11461018a578063b35e046e146101b3578063bddd4824146101de576100dd565b80632e87b2d1146100e2578063715018a61461011f5780638da14a2914610136575b600080fd5b3480156100ee57600080fd5b506101096004803603810190610104919061262e565b610341565b604051610116919061266a565b60405180910390f35b34801561012b57600080fd5b50610134610359565b005b34801561014257600080fd5b5061015d600480360381019061015891906126e3565b61036d565b005b34801561016b57600080fd5b506101746103b9565b604051610181919061271f565b60405180910390f35b34801561019657600080fd5b506101b160048036038101906101ac919061279f565b6103e2565b005b3480156101bf57600080fd5b506101c8610b53565b6040516101d5919061271f565b60405180910390f35b6101f860048036038101906101f39190612872565b610b79565b005b34801561020657600080fd5b50610221600480360381019061021c91906126e3565b610bac565b005b34801561022f57600080fd5b5061024a600480360381019061024591906128ed565b610bf8565b005b34801561025857600080fd5b50610261610c56565b60405161026e919061271f565b60405180910390f35b34801561028357600080fd5b5061029e6004803603810190610299919061262e565b610c7c565b6040516102ab919061271f565b60405180910390f35b3480156102c057600080fd5b506102db60048036038101906102d6919061292d565b610caf565b6040516102f39c9b9a99989796959493929190612a3b565b60405180910390f35b34801561030857600080fd5b50610323600480360381019061031e91906126e3565b610d91565b005b61033f600480360381019061033a9190612af5565b610e17565b005b60016020528060005260406000206000915090505481565b6103616112c1565b61036b6000611348565b565b6103756112c1565b80600360006101000a81548173ffffffffffffffffffffffffffffffffffffffff021916908373ffffffffffffffffffffffffffffffffffffffff16021790555050565b60008060009054906101000a900473ffffffffffffffffffffffffffffffffffffffff16905090565b600460009054906101000a900473ffffffffffffffffffffffffffffffffffffffff1673ffffffffffffffffffffffffffffffffffffffff163373ffffffffffffffffffffffffffffffffffffffff1614610472576040517f08c379a000000000000000000000000000000000000000000000000000000000815260040161046990612bcb565b60405180910390fd5b82848073ffffffffffffffffffffffffffffffffffffffff166005600084815260200190815260200160002060009054906101000a900473ffffffffffffffffffffffffffffffffffffffff1673ffffffffffffffffffffffffffffffffffffffff1614610515576040517f08c379a000000000000000000000000000000000000000000000000000000000815260040161050c90612c5d565b60405180910390fd5b60a084849050036107e757600080600080600088888101906105379190612ca2565b94509450945094509450600073ffffffffffffffffffffffffffffffffffffffff1660026000868152602001908152602001600020600087815260200190815260200160002060020160009054906101000a900473ffffffffffffffffffffffffffffffffffffffff1673ffffffffffffffffffffffffffffffffffffffff16036105f7576040517f08c379a00000000000000000000000000000000000000000000000000000000081526004016105ee90612d69565b60405180910390fd5b8160016002600087815260200190815260200160002060008881526020019081526020016000206001015461062c9190612db8565b1461066c576040517f08c379a000000000000000000000000000000000000000000000000000000000815260040161066390612e38565b60405180910390fd5b8346036106c7578260026000868152602001908152602001600020600087815260200190815260200160002060060160016101000a81548160ff021916908360038111156106bd576106bc61296d565b5b0217905550610717565b8260026000868152602001908152602001600020600087815260200190815260200160002060060160006101000a81548160ff021916908360038111156107115761071061296d565b5b02179055505b8060026000868152602001908152602001600020600087815260200190815260200160002060060160026101000a81548160ff021916908360038111156107615761076061296d565b5b02179055506000600381111561077a5761077961296d565b5b81600381111561078d5761078c61296d565b5b036107d2577f93e09f7775ee67d3d5b293d6701cbec274ea7502b3996ce06ba1b67228df20bc8585856040516107c593929190612e58565b60405180910390a16107dd565b6107dc848661140c565b5b5050505050610b4b565b6101808484905003610ace57600084848101906108049190613042565b9050600073ffffffffffffffffffffffffffffffffffffffff16600260008360600151815260200190815260200160002060008360000151815260200190815260200160002060020160009054906101000a900473ffffffffffffffffffffffffffffffffffffffff1673ffffffffffffffffffffffffffffffffffffffff16146108c4576040517f08c379a00000000000000000000000000000000000000000000000000000000081526004016108bb906130bc565b60405180910390fd5b806002600083606001518152602001908152602001600020600083600001518152602001908152602001600020600082015181600001556020820151816001015560408201518160020160006101000a81548173ffffffffffffffffffffffffffffffffffffffff021916908373ffffffffffffffffffffffffffffffffffffffff1602179055506060820151816003015560808201518160040160006101000a81548173ffffffffffffffffffffffffffffffffffffffff021916908373ffffffffffffffffffffffffffffffffffffffff16021790555060a0820151816005015560c08201518160060160006101000a81548160ff021916908360038111156109d2576109d161296d565b5b021790555060e08201518160060160016101000a81548160ff02191690836003811115610a0257610a0161296d565b5b02179055506101008201518160060160026101000a81548160ff02191690836003811115610a3357610a3261296d565b5b02179055506101208201518160060160036101000a81548161ffff021916908361ffff1602179055506101408201518160070155610160820151816008015590505080606001518603610ac8577f93e09f7775ee67d3d5b293d6701cbec274ea7502b3996ce06ba1b67228df20bc816000015182606001518360c00151604051610abf93929190612e58565b60405180910390a15b50610b4b565b610b106040518060400160405280601d81526020017f556e6b6e6f776e204d657373616765206f66206c656e6774683a20257300000081525085859050611827565b6040517f08c379a0000000000000000000000000000000000000000000000000000000008152600401610b4290613128565b60405180910390fd5b505050505050565b600360009054906101000a900473ffffffffffffffffffffffffffffffffffffffff1681565b610b88334687878787876118c3565b610ba5600160004681526020019081526020016000205446611b7e565b5050505050565b610bb46112c1565b80600460006101000a81548173ffffffffffffffffffffffffffffffffffffffff021916908373ffffffffffffffffffffffffffffffffffffffff16021790555050565b610c006112c1565b806005600084815260200190815260200160002060006101000a81548173ffffffffffffffffffffffffffffffffffffffff021916908373ffffffffffffffffffffffffffffffffffffffff1602179055505050565b600460009054906101000a900473ffffffffffffffffffffffffffffffffffffffff1681565b60056020528060005260406000206000915054906101000a900473ffffffffffffffffffffffffffffffffffffffff1681565b6002602052816000526040600020602052806000526040600020600091509150508060000154908060010154908060020160009054906101000a900473ffffffffffffffffffffffffffffffffffffffff16908060030154908060040160009054906101000a900473ffffffffffffffffffffffffffffffffffffffff16908060050154908060060160009054906101000a900460ff16908060060160019054906101000a900460ff16908060060160029054906101000a900460ff16908060060160039054906101000a900461ffff1690806007015490806008015490508c565b610d996112c1565b600073ffffffffffffffffffffffffffffffffffffffff168173ffffffffffffffffffffffffffffffffffffffff1603610e0b5760006040517f1e4fbdf7000000000000000000000000000000000000000000000000000000008152600401610e02919061271f565b60405180910390fd5b610e1481611348565b50565b60006003811115610e2b57610e2a61296d565b5b816003811115610e3e57610e3d61296d565b5b03610e7e576040517f08c379a0000000000000000000000000000000000000000000000000000000008152600401610e7590613194565b60405180910390fd5b60006003811115610e9257610e9161296d565b5b60026000848152602001908152602001600020600085815260200190815260200160002060060160029054906101000a900460ff166003811115610ed957610ed861296d565b5b14610f19576040517f08c379a0000000000000000000000000000000000000000000000000000000008152600401610f1090613200565b60405180910390fd5b600160026000848152602001908152602001600020600085815260200190815260200160002060010154148015610f7657503460026000848152602001908152602001600020600085815260200190815260200160002060080154115b15610fb6576040517f08c379a0000000000000000000000000000000000000000000000000000000008152600401610fad90613292565b60405180910390fd5b60026000838152602001908152602001600020600084815260200190815260200160002060020160009054906101000a900473ffffffffffffffffffffffffffffffffffffffff1673ffffffffffffffffffffffffffffffffffffffff163373ffffffffffffffffffffffffffffffffffffffff1614801561105e57506002600083815260200190815260200160002060008481526020019081526020016000206003015446145b156110f5578060026000848152602001908152602001600020600085815260200190815260200160002060060160006101000a81548160ff021916908360038111156110ad576110ac61296d565b5b02179055503460026000848152602001908152602001600020600085815260200190815260200160002060070160008282546110e99190612db8565b925050819055506111b3565b8060026000848152602001908152602001600020600085815260200190815260200160002060060160016101000a81548160ff0219169083600381111561113f5761113e61296d565b5b0217905550600160026000848152602001908152602001600020600085815260200190815260200160002060010154036111b2573460026000848152602001908152602001600020600085815260200190815260200160002060080160008282546111aa9190612db8565b925050819055505b5b60026000838152602001908152602001600020600084815260200190815260200160002060010160008154809291906111eb906132b2565b919050555060026000838152602001908152602001600020600084815260200190815260200160002060040160009054906101000a900473ffffffffffffffffffffffffffffffffffffffff1673ffffffffffffffffffffffffffffffffffffffff163373ffffffffffffffffffffffffffffffffffffffff1614801561129857506002600083815260200190815260200160002060008481526020019081526020016000206005015446145b156112b2576112a78284611d34565b6112b1828461140c565b5b6112bc8383612326565b505050565b6112c961258c565b73ffffffffffffffffffffffffffffffffffffffff166112e76103b9565b73ffffffffffffffffffffffffffffffffffffffff16146113465761130a61258c565b6040517f118cdaa700000000000000000000000000000000000000000000000000000000815260040161133d919061271f565b60405180910390fd5b565b60008060009054906101000a900473ffffffffffffffffffffffffffffffffffffffff169050816000806101000a81548173ffffffffffffffffffffffffffffffffffffffff021916908373ffffffffffffffffffffffffffffffffffffffff1602179055508173ffffffffffffffffffffffffffffffffffffffff168173ffffffffffffffffffffffffffffffffffffffff167f8be0079c531659141344cd1fd0a4f28419497f9722a3daafe3b4186f6b6457e060405160405180910390a35050565b600060038111156114205761141f61296d565b5b60026000848152602001908152602001600020600083815260200190815260200160002060060160029054906101000a900460ff1660038111156114675761146661296d565b5b036114a7576040517f08c379a000000000000000000000000000000000000000000000000000000000815260040161149e90613346565b60405180910390fd5b814614801561150e5750600160038111156114c5576114c461296d565b5b60026000848152602001908152602001600020600083815260200190815260200160002060060160029054906101000a900460ff16600381111561150c5761150b61296d565b5b145b15611666576000600260008481526020019081526020016000206000838152602001908152602001600020600701549050600060026000858152602001908152602001600020600084815260200190815260200160002060070181905550600060026000858152602001908152602001600020600084815260200190815260200160002060020160009054906101000a900473ffffffffffffffffffffffffffffffffffffffff1673ffffffffffffffffffffffffffffffffffffffff16826040516115d990613397565b60006040518083038185875af1925050503d8060008114611616576040519150601f19603f3d011682016040523d82523d6000602084013e61161b565b606091505b505090508061165f576040517f08c379a0000000000000000000000000000000000000000000000000000000008152600401611656906133f8565b60405180910390fd5b5050611823565b8146141580156116ce5750600260038111156116855761168461296d565b5b60026000848152602001908152602001600020600083815260200190815260200160002060060160029054906101000a900460ff1660038111156116cc576116cb61296d565b5b145b15611822576000600260008481526020019081526020016000206000838152602001908152602001600020600801549050600060026000858152602001908152602001600020600084815260200190815260200160002060080181905550600060026000858152602001908152602001600020600084815260200190815260200160002060040160009054906101000a900473ffffffffffffffffffffffffffffffffffffffff1673ffffffffffffffffffffffffffffffffffffffff168260405161179990613397565b60006040518083038185875af1925050503d80600081146117d6576040519150601f19603f3d011682016040523d82523d6000602084013e6117db565b606091505b505090508061181f576040517f08c379a0000000000000000000000000000000000000000000000000000000008152600401611816906133f8565b60405180910390fd5b50505b5b5050565b6118bf828260405160240161183d929190613486565b6040516020818303038152906040527fb60e72cc000000000000000000000000000000000000000000000000000000007bffffffffffffffffffffffffffffffffffffffffffffffffffffffff19166020820180517bffffffffffffffffffffffffffffffffffffffffffffffffffffffff8381831617835250505050612594565b5050565b6001600087815260200190815260200160002060008154809291906118e7906132b2565b919050555060405180610180016040528060016000898152602001908152602001600020548152602001600181526020018873ffffffffffffffffffffffffffffffffffffffff1681526020018781526020018673ffffffffffffffffffffffffffffffffffffffff16815260200185815260200184600381111561196f5761196e61296d565b5b8152602001600060038111156119885761198761296d565b5b8152602001600060038111156119a1576119a061296d565b5b81526020018361ffff16815260200134815260200182815250600260008881526020019081526020016000206000600160008a8152602001908152602001600020548152602001908152602001600020600082015181600001556020820151816001015560408201518160020160006101000a81548173ffffffffffffffffffffffffffffffffffffffff021916908373ffffffffffffffffffffffffffffffffffffffff1602179055506060820151816003015560808201518160040160006101000a81548173ffffffffffffffffffffffffffffffffffffffff021916908373ffffffffffffffffffffffffffffffffffffffff16021790555060a0820151816005015560c08201518160060160006101000a81548160ff02191690836003811115611ad257611ad161296d565b5b021790555060e08201518160060160016101000a81548160ff02191690836003811115611b0257611b0161296d565b5b02179055506101008201518160060160026101000a81548160ff02191690836003811115611b3357611b3261296d565b5b02179055506101208201518160060160036101000a81548161ffff021916908361ffff1602179055506101408201518160070155610160820151816008015590505050505050505050565b6000600260008381526020019081526020016000206000848152602001908152602001600020604051602001611bb49190613786565b60405160208183030381529060405290506000600360009054906101000a900473ffffffffffffffffffffffffffffffffffffffff1690506000834603611c2457600260008581526020019081526020016000206000868152602001908152602001600020600501549050611c4f565b6002600085815260200190815260200160002060008681526020019081526020016000206003015490505b8173ffffffffffffffffffffffffffffffffffffffff1663bc20d3706000856005600086815260200190815260200160002060009054906101000a900473ffffffffffffffffffffffffffffffffffffffff1685600260008b815260200190815260200160002060008c815260200190815260200160002060060160039054906101000a900461ffff1660006040518763ffffffff1660e01b8152600401611cfb959493929190613812565b6000604051808303818588803b158015611d1457600080fd5b505af1158015611d28573d6000803e3d6000fd5b50505050505050505050565b60006003811115611d4857611d4761296d565b5b60026000848152602001908152602001600020600083815260200190815260200160002060060160009054906101000a900460ff166003811115611d8f57611d8e61296d565b5b14158015611df6575060006003811115611dac57611dab61296d565b5b60026000848152602001908152602001600020600083815260200190815260200160002060060160019054906101000a900460ff166003811115611df357611df261296d565b5b14155b611e35576040517f08c379a0000000000000000000000000000000000000000000000000000000008152600401611e2c90613904565b60405180910390fd5b60026000838152602001908152602001600020600082815260200190815260200160002060060160019054906101000a900460ff166003811115611e7c57611e7b61296d565b5b60026000848152602001908152602001600020600083815260200190815260200160002060060160009054906101000a900460ff166003811115611ec357611ec261296d565b5b03611f7757600360026000848152602001908152602001600020600083815260200190815260200160002060060160026101000a81548160ff02191690836003811115611f1357611f1261296d565b5b02179055507f53c338ee89d39c00068749165cca149118cdbaa576e8a31df7f3c9ba8bce81d2600260008481526020019081526020016000206000838152602001908152602001600020604051611f6a9190613786565b60405180910390a1612322565b60016003811115611f8b57611f8a61296d565b5b60026000848152602001908152602001600020600083815260200190815260200160002060060160009054906101000a900460ff166003811115611fd257611fd161296d565b5b1480156120365750600380811115611fed57611fec61296d565b5b60026000848152602001908152602001600020600083815260200190815260200160002060060160019054906101000a900460ff1660038111156120345761203361296d565b5b145b806120fd5750600260038111156120505761204f61296d565b5b60026000848152602001908152602001600020600083815260200190815260200160002060060160009054906101000a900460ff1660038111156120975761209661296d565b5b1480156120fc5750600160038111156120b3576120b261296d565b5b60026000848152602001908152602001600020600083815260200190815260200160002060060160019054906101000a900460ff1660038111156120fa576120f961296d565b5b145b5b806121c357506003808111156121165761211561296d565b5b60026000848152602001908152602001600020600083815260200190815260200160002060060160009054906101000a900460ff16600381111561215d5761215c61296d565b5b1480156121c25750600260038111156121795761217861296d565b5b60026000848152602001908152602001600020600083815260200190815260200160002060060160019054906101000a900460ff1660038111156121c0576121bf61296d565b5b145b5b1561227757600160026000848152602001908152602001600020600083815260200190815260200160002060060160026101000a81548160ff021916908360038111156122135761221261296d565b5b02179055507f53c338ee89d39c00068749165cca149118cdbaa576e8a31df7f3c9ba8bce81d260026000848152602001908152602001600020600083815260200190815260200160002060405161226a9190613786565b60405180910390a1612321565b6002806000848152602001908152602001600020600083815260200190815260200160002060060160026101000a81548160ff021916908360038111156122c1576122c061296d565b5b02179055507f53c338ee89d39c00068749165cca149118cdbaa576e8a31df7f3c9ba8bce81d26002600084815260200190815260200160002060008381526020019081526020016000206040516123189190613786565b60405180910390a15b5b5050565b6000808246036123965760026000848152602001908152602001600020600085815260200190815260200160002060060160009054906101000a900460ff1691506002600084815260200190815260200160002060008581526020019081526020016000206005015490506123f8565b60026000848152602001908152602001600020600085815260200190815260200160002060060160019054906101000a900460ff1691506002600084815260200190815260200160002060008581526020019081526020016000206003015490505b6000848484600260008881526020019081526020016000206000898152602001908152602001600020600101546002600089815260200190815260200160002060008a815260200190815260200160002060060160029054906101000a900460ff1660405160200161246e959493929190613924565b60405160208183030381529060405290506000600360009054906101000a900473ffffffffffffffffffffffffffffffffffffffff1690508073ffffffffffffffffffffffffffffffffffffffff1663bc20d3706000846005600088815260200190815260200160002060009054906101000a900473ffffffffffffffffffffffffffffffffffffffff1687600260008c815260200190815260200160002060008d815260200190815260200160002060060160039054906101000a900461ffff1660006040518763ffffffff1660e01b8152600401612552959493929190613812565b6000604051808303818588803b15801561256b57600080fd5b505af115801561257f573d6000803e3d6000fd5b5050505050505050505050565b600033905090565b6125ab816125a36125ae6125cf565b63ffffffff16565b50565b60006a636f6e736f6c652e6c6f679050600080835160208501845afa505050565b6125da819050919050565b6125e2613977565b565b6000604051905090565b600080fd5b600080fd5b6000819050919050565b61260b816125f8565b811461261657600080fd5b50565b60008135905061262881612602565b92915050565b600060208284031215612644576126436125ee565b5b600061265284828501612619565b91505092915050565b612664816125f8565b82525050565b600060208201905061267f600083018461265b565b92915050565b600073ffffffffffffffffffffffffffffffffffffffff82169050919050565b60006126b082612685565b9050919050565b6126c0816126a5565b81146126cb57600080fd5b50565b6000813590506126dd816126b7565b92915050565b6000602082840312156126f9576126f86125ee565b5b6000612707848285016126ce565b91505092915050565b612719816126a5565b82525050565b60006020820190506127346000830184612710565b92915050565b600080fd5b600080fd5b600080fd5b60008083601f84011261275f5761275e61273a565b5b8235905067ffffffffffffffff81111561277c5761277b61273f565b5b60208301915083600182028301111561279857612797612744565b5b9250929050565b600080600080606085870312156127b9576127b86125ee565b5b60006127c7878288016126ce565b94505060206127d887828801612619565b935050604085013567ffffffffffffffff8111156127f9576127f86125f3565b5b61280587828801612749565b925092505092959194509250565b6004811061282057600080fd5b50565b60008135905061283281612813565b92915050565b600061ffff82169050919050565b61284f81612838565b811461285a57600080fd5b50565b60008135905061286c81612846565b92915050565b600080600080600060a0868803121561288e5761288d6125ee565b5b600061289c888289016126ce565b95505060206128ad88828901612619565b94505060406128be88828901612823565b93505060606128cf8882890161285d565b92505060806128e088828901612619565b9150509295509295909350565b60008060408385031215612904576129036125ee565b5b600061291285828601612619565b9250506020612923858286016126ce565b9150509250929050565b60008060408385031215612944576129436125ee565b5b600061295285828601612619565b925050602061296385828601612619565b9150509250929050565b7f4e487b7100000000000000000000000000000000000000000000000000000000600052602160045260246000fd5b600481106129ad576129ac61296d565b5b50565b60008190506129be8261299c565b919050565b60006129ce826129b0565b9050919050565b6129de816129c3565b82525050565b600481106129f5576129f461296d565b5b50565b6000819050612a06826129e4565b919050565b6000612a16826129f8565b9050919050565b612a2681612a0b565b82525050565b612a3581612838565b82525050565b600061018082019050612a51600083018f61265b565b612a5e602083018e61265b565b612a6b604083018d612710565b612a78606083018c61265b565b612a85608083018b612710565b612a9260a083018a61265b565b612a9f60c08301896129d5565b612aac60e08301886129d5565b612aba610100830187612a1d565b612ac8610120830186612a2c565b612ad661014083018561265b565b612ae461016083018461265b565b9d9c50505050505050505050505050565b600080600060608486031215612b0e57612b0d6125ee565b5b6000612b1c86828701612619565b9350506020612b2d86828701612619565b9250506040612b3e86828701612823565b9150509250925092565b600082825260208201905092915050565b7f4f6e6c7920696e636f6d696e6720636f6d6d756e69636174696f6e20636f6e7460008201527f726163742063616e2063616c6c20746869732066756e6374696f6e0000000000602082015250565b6000612bb5603b83612b48565b9150612bc082612b59565b604082019050919050565b60006020820190508181036000830152612be481612ba8565b9050919050565b7f496e76616c69642067616d6520636f6e7472616374206164647265737320697360008201527f2073656e64696e672061206d6f76650000000000000000000000000000000000602082015250565b6000612c47602f83612b48565b9150612c5282612beb565b604082019050919050565b60006020820190508181036000830152612c7681612c3a565b9050919050565b60048110612c8a57600080fd5b50565b600081359050612c9c81612c7d565b92915050565b600080600080600060a08688031215612cbe57612cbd6125ee565b5b6000612ccc88828901612619565b9550506020612cdd88828901612619565b9450506040612cee88828901612823565b9350506060612cff88828901612619565b9250506080612d1088828901612c8d565b9150509295509295909350565b7f47616d65206e6f74206372656174656400000000000000000000000000000000600082015250565b6000612d53601083612b48565b9150612d5e82612d1d565b602082019050919050565b60006020820190508181036000830152612d8281612d46565b9050919050565b7f4e487b7100000000000000000000000000000000000000000000000000000000600052601160045260246000fd5b6000612dc3826125f8565b9150612dce836125f8565b9250828201905080821115612de657612de5612d89565b5b92915050565b7f4e6f6e206578706563746564206e756d626572206f66206d6f76650000000000600082015250565b6000612e22601b83612b48565b9150612e2d82612dec565b602082019050919050565b60006020820190508181036000830152612e5181612e15565b9050919050565b6000606082019050612e6d600083018661265b565b612e7a602083018561265b565b612e8760408301846129d5565b949350505050565b600080fd5b6000601f19601f8301169050919050565b7f4e487b7100000000000000000000000000000000000000000000000000000000600052604160045260246000fd5b612edd82612e94565b810181811067ffffffffffffffff82111715612efc57612efb612ea5565b5b80604052505050565b6000612f0f6125e4565b9050612f1b8282612ed4565b919050565b60006101808284031215612f3757612f36612e8f565b5b612f42610180612f05565b90506000612f5284828501612619565b6000830152506020612f6684828501612619565b6020830152506040612f7a848285016126ce565b6040830152506060612f8e84828501612619565b6060830152506080612fa2848285016126ce565b60808301525060a0612fb684828501612619565b60a08301525060c0612fca84828501612823565b60c08301525060e0612fde84828501612823565b60e083015250610100612ff384828501612c8d565b610100830152506101206130098482850161285d565b6101208301525061014061301f84828501612619565b6101408301525061016061303584828501612619565b6101608301525092915050565b60006101808284031215613059576130586125ee565b5b600061306784828501612f20565b91505092915050565b7f47616d6520616c72656164792063726561746564000000000000000000000000600082015250565b60006130a6601483612b48565b91506130b182613070565b602082019050919050565b600060208201905081810360008301526130d581613099565b9050919050565b7f556e6b6e6f776e204d6573736167650000000000000000000000000000000000600082015250565b6000613112600f83612b48565b915061311d826130dc565b602082019050919050565b6000602082019050818103600083015261314181613105565b9050919050565b7f496e76616c6964206d6f76650000000000000000000000000000000000000000600082015250565b600061317e600c83612b48565b915061318982613148565b602082019050919050565b600060208201905081810360008301526131ad81613171565b9050919050565b7f47616d6520616c726561647920636f6d706c6574656400000000000000000000600082015250565b60006131ea601683612b48565b91506131f5826131b4565b602082019050919050565b60006020820190508181036000830152613219816131dd565b9050919050565b7f5468652062657420726571756972656420746f20706c6179207468652067616d60008201527f6520697320686967686572207468616e2074686520616d6f756e742073656e74602082015250565b600061327c604083612b48565b915061328782613220565b604082019050919050565b600060208201905081810360008301526132ab8161326f565b9050919050565b60006132bd826125f8565b91507fffffffffffffffffffffffffffffffffffffffffffffffffffffffffffffffff82036132ef576132ee612d89565b5b600182019050919050565b7f2047616d6520726573756c74206e6f74207965742064657465726d696e656400600082015250565b6000613330601f83612b48565b915061333b826132fa565b602082019050919050565b6000602082019050818103600083015261335f81613323565b9050919050565b600081905092915050565b50565b6000613381600083613366565b915061338c82613371565b600082019050919050565b60006133a282613374565b9150819050919050565b7f5472616e73666572206661696c65640000000000000000000000000000000000600082015250565b60006133e2600f83612b48565b91506133ed826133ac565b602082019050919050565b60006020820190508181036000830152613411816133d5565b9050919050565b600081519050919050565b60005b83811015613441578082015181840152602081019050613426565b60008484015250505050565b600061345882613418565b6134628185612b48565b9350613472818560208601613423565b61347b81612e94565b840191505092915050565b600060408201905081810360008301526134a0818561344d565b90506134af602083018461265b565b9392505050565b60008160001c9050919050565b6000819050919050565b60006134e06134db836134b6565b6134c3565b9050919050565b6134f0816125f8565b82525050565b600073ffffffffffffffffffffffffffffffffffffffff82169050919050565b6000613529613524836134b6565b6134f6565b9050919050565b613539816126a5565b82525050565b600060ff82169050919050565b600061355f61355a836134b6565b61353f565b9050919050565b61356f816129c3565b82525050565b60008160081c9050919050565b600061359561359083613575565b61353f565b9050919050565b60008160101c9050919050565b600060ff82169050919050565b60006135c96135c48361359c565b6135a9565b9050919050565b6135d981612a0b565b82525050565b60008160181c9050919050565b600061ffff82169050919050565b600061360d613608836135df565b6135ec565b9050919050565b61361d81612838565b82525050565b61018082016000808301549050613639816134cd565b61364660008601826134e7565b5060018301549050613657816134cd565b61366460208601826134e7565b506002830154905061367581613516565b6136826040860182613530565b5060038301549050613693816134cd565b6136a060608601826134e7565b50600483015490506136b181613516565b6136be6080860182613530565b50600583015490506136cf816134cd565b6136dc60a08601826134e7565b50600683015490506136ed8161354c565b6136fa60c0860182613566565b5061370481613582565b61371160e0860182613566565b5061371b816135b6565b6137296101008601826135d0565b50613733816135fa565b613741610120860182613614565b5060078301549050613752816134cd565b6137606101408601826134e7565b5060088301549050613771816134cd565b61377f6101608601826134e7565b5050505050565b60006101808201905061379c6000830184613623565b92915050565b600081519050919050565b600082825260208201905092915050565b60006137c9826137a2565b6137d381856137ad565b93506137e3818560208601613423565b6137ec81612e94565b840191505092915050565b60008115159050919050565b61380c816137f7565b82525050565b600060a082019050818103600083015261382c81886137be565b905061383b6020830187612710565b613848604083018661265b565b6138556060830185612a2c565b6138626080830184613803565b9695505050505050565b7f47616d65206e6f742066696e69736865642e204974206d75737420626520666960008201527f6e6973686564206265666f72652064657465726d696e696e672074686520776960208201527f6e6e657200000000000000000000000000000000000000000000000000000000604082015250565b60006138ee604483612b48565b91506138f98261386c565b606082019050919050565b6000602082019050818103600083015261391d816138e1565b9050919050565b600060a082019050613939600083018861265b565b613946602083018761265b565b61395360408301866129d5565b613960606083018561265b565b61396d6080830184612a1d565b9695505050505050565b7f4e487b7100000000000000000000000000000000000000000000000000000000600052605160045260246000fdfea2646970667358221220559da304f848a339a29e90495848c278a0397f75b700b0a0f066913e64109adb64736f6c634300081b0033",
  "linkReferences": {},
  "deployedLinkReferences": {}
}