{
  "_format": "hh-sol-artifact-1",
  "contractName": "OutgoingCommunication",
  "sourceName": "contracts/OutgoingCommunication.sol",
  "abi": [
    {
      "inputs": [
        {
          "internalType": "uint256[]",
          "name": "_blockChainIds",
          "type": "uint256[]"
        },
        {
          "internalType": "address[]",
          "name": "_blockChainAddresses",
          "type": "address[]"
        },
        {
          "internalType": "address",
          "name": "_verificationAdress",
          "type": "address"
        }
      ],
      "stateMutability": "payable",
      "type": "constructor"
    },
    {
      "inputs": [
        {
          "internalType": "address",
          "name": "owner",
          "type": "address"
        }
      ],
      "name": "OwnableInvalidOwner",
      "type": "error"
    },
    {
      "inputs": [
        {
          "internalType": "address",
          "name": "account",
          "type": "address"
        }
      ],
      "name": "OwnableUnauthorizedAccount",
      "type": "error"
    },
    {
      "anonymous": false,
      "inputs": [
        {
          "indexed": false,
          "internalType": "uint256",
          "name": "destinationBC",
          "type": "uint256"
        },
        {
          "indexed": false,
          "internalType": "uint256[]",
          "name": "messageNumbers",
          "type": "uint256[]"
        }
      ],
      "name": "MessageDeliveryPaid",
      "type": "event"
    },
    {
      "anonymous": false,
      "inputs": [
        {
          "indexed": false,
          "internalType": "bytes",
          "name": "data",
          "type": "bytes"
        },
        {
          "indexed": false,
          "internalType": "address",
          "name": "sender",
          "type": "address"
        },
        {
          "indexed": false,
          "internalType": "address",
          "name": "receiver",
          "type": "address"
        },
        {
          "indexed": false,
          "internalType": "uint256",
          "name": "destinationBC",
          "type": "uint256"
        },
        {
          "indexed": false,
          "internalType": "uint16",
          "name": "finalityNBlocks",
          "type": "uint16"
        },
        {
          "indexed": false,
          "internalType": "uint256",
          "name": "messageNumber",
          "type": "uint256"
        },
        {
          "indexed": false,
          "internalType": "bool",
          "name": "taxi",
          "type": "bool"
        },
        {
          "indexed": false,
          "internalType": "uint256",
          "name": "fee",
          "type": "uint256"
        }
      ],
      "name": "OutboundMessage",
      "type": "event"
    },
    {
      "anonymous": false,
      "inputs": [
        {
          "indexed": true,
          "internalType": "address",
          "name": "previousOwner",
          "type": "address"
        },
        {
          "indexed": true,
          "internalType": "address",
          "name": "newOwner",
          "type": "address"
        }
      ],
      "name": "OwnershipTransferred",
      "type": "event"
    },
    {
      "anonymous": false,
      "inputs": [
        {
          "indexed": false,
          "internalType": "uint256",
          "name": "destinationBC",
          "type": "uint256"
        },
        {
          "indexed": false,
          "internalType": "uint256",
          "name": "fee",
          "type": "uint256"
        },
        {
          "indexed": false,
          "internalType": "uint256",
          "name": "messageNumber",
          "type": "uint256"
        }
      ],
      "name": "UpdateMessageFee",
      "type": "event"
    },
    {
      "inputs": [
        {
          "internalType": "uint256",
          "name": "",
          "type": "uint256"
        }
      ],
      "name": "destAddresesPerChainId",
      "outputs": [
        {
          "internalType": "address",
          "name": "",
          "type": "address"
        }
      ],
      "stateMutability": "view",
      "type": "function"
    },
    {
      "inputs": [],
      "name": "getBalance",
      "outputs": [
        {
          "internalType": "uint256",
          "name": "",
          "type": "uint256"
        }
      ],
      "stateMutability": "view",
      "type": "function"
    },
    {
      "inputs": [
        {
          "internalType": "uint256",
          "name": "",
          "type": "uint256"
        },
        {
          "internalType": "uint256",
          "name": "",
          "type": "uint256"
        }
      ],
      "name": "msgFeePerDestChainIdAndNumber",
      "outputs": [
        {
          "internalType": "uint256",
          "name": "",
          "type": "uint256"
        }
      ],
      "stateMutability": "view",
      "type": "function"
    },
    {
      "inputs": [
        {
          "internalType": "uint256",
          "name": "",
          "type": "uint256"
        },
        {
          "internalType": "uint256",
          "name": "",
          "type": "uint256"
        }
      ],
      "name": "outMsgStatusPerChainIdAndMsgNumber",
      "outputs": [
        {
          "internalType": "enum OutgoingCommunication.OutgoingMsgStatus",
          "name": "",
          "type": "uint8"
        }
      ],
      "stateMutability": "view",
      "type": "function"
    },
    {
      "inputs": [
        {
          "internalType": "uint256",
          "name": "",
          "type": "uint256"
        }
      ],
      "name": "outgoingMsgNumberPerDestChain",
      "outputs": [
        {
          "internalType": "uint256",
          "name": "",
          "type": "uint256"
        }
      ],
      "stateMutability": "view",
      "type": "function"
    },
    {
      "inputs": [],
      "name": "owner",
      "outputs": [
        {
          "internalType": "address",
          "name": "",
          "type": "address"
        }
      ],
      "stateMutability": "view",
      "type": "function"
    },
    {
      "inputs": [
        {
          "components": [
            {
              "internalType": "address",
              "name": "relayer",
              "type": "address"
            },
            {
              "internalType": "uint256",
              "name": "sourceBC",
              "type": "uint256"
            },
            {
              "internalType": "uint256[]",
              "name": "messageNumbers",
              "type": "uint256[]"
            }
          ],
          "internalType": "struct IVerification.MessagesDelivered",
          "name": "_messagesDelivered",
          "type": "tuple"
        },
        {
          "internalType": "uint256",
          "name": "_destinationBC",
          "type": "uint256"
        },
        {
          "internalType": "uint256",
          "name": "_destinationBlockNumber",
          "type": "uint256"
        },
        {
          "internalType": "address",
          "name": "_destinationEndpoint",
          "type": "address"
        }
      ],
      "name": "payRelayer",
      "outputs": [],
      "stateMutability": "payable",
      "type": "function"
    },
    {
      "inputs": [],
      "name": "renounceOwnership",
      "outputs": [],
      "stateMutability": "nonpayable",
      "type": "function"
    },
    {
      "inputs": [
        {
          "internalType": "bytes",
          "name": "_messageData",
          "type": "bytes"
        },
        {
          "internalType": "address",
          "name": "_receiver",
          "type": "address"
        },
        {
          "internalType": "uint256",
          "name": "_destinationBC",
          "type": "uint256"
        },
        {
          "internalType": "uint16",
          "name": "_finalityNBlocks",
          "type": "uint16"
        },
        {
          "internalType": "bool",
          "name": "_taxi",
          "type": "bool"
        }
      ],
      "name": "sendMessage",
      "outputs": [],
      "stateMutability": "payable",
      "type": "function"
    },
    {
      "inputs": [
        {
          "internalType": "address",
          "name": "newOwner",
          "type": "address"
        }
      ],
      "name": "transferOwnership",
      "outputs": [],
      "stateMutability": "nonpayable",
      "type": "function"
    },
    {
      "inputs": [
        {
          "internalType": "uint256",
          "name": "_chainId",
          "type": "uint256"
        },
        {
          "internalType": "address",
          "name": "_address",
          "type": "address"
        }
      ],
      "name": "updateDestinationAddresses",
      "outputs": [],
      "stateMutability": "nonpayable",
      "type": "function"
    },
    {
      "inputs": [
        {
          "internalType": "uint256",
          "name": "_destinationBC",
          "type": "uint256"
        },
        {
          "internalType": "uint256",
          "name": "_messageNumber",
          "type": "uint256"
        }
      ],
      "name": "updateMessageFee",
      "outputs": [],
      "stateMutability": "payable",
      "type": "function"
    },
    {
      "inputs": [
        {
          "internalType": "address",
          "name": "_newAddress",
          "type": "address"
        }
      ],
      "name": "updateVerificationContract",
      "outputs": [],
      "stateMutability": "nonpayable",
      "type": "function"
    }
  ],
  "bytecode": "0x608060405260405161226a38038061226a83398181016040528101906100259190610519565b33600073ffffffffffffffffffffffffffffffffffffffff168173ffffffffffffffffffffffffffffffffffffffff16036100985760006040517f1e4fbdf700000000000000000000000000000000000000000000000000000000815260040161008f91906105b3565b60405180910390fd5b6100a78161019160201b60201c565b5060005b8351811015610147578281815181106100c7576100c66105ce565b5b6020026020010151600560008684815181106100e6576100e56105ce565b5b6020026020010151815260200190815260200160002060006101000a81548173ffffffffffffffffffffffffffffffffffffffff021916908373ffffffffffffffffffffffffffffffffffffffff16021790555080806001019150506100ab565b5080600160006101000a81548173ffffffffffffffffffffffffffffffffffffffff021916908373ffffffffffffffffffffffffffffffffffffffff1602179055505050506105fd565b60008060009054906101000a900473ffffffffffffffffffffffffffffffffffffffff169050816000806101000a81548173ffffffffffffffffffffffffffffffffffffffff021916908373ffffffffffffffffffffffffffffffffffffffff1602179055508173ffffffffffffffffffffffffffffffffffffffff168173ffffffffffffffffffffffffffffffffffffffff167f8be0079c531659141344cd1fd0a4f28419497f9722a3daafe3b4186f6b6457e060405160405180910390a35050565b6000604051905090565b600080fd5b600080fd5b600080fd5b6000601f19601f8301169050919050565b7f4e487b7100000000000000000000000000000000000000000000000000000000600052604160045260246000fd5b6102b78261026e565b810181811067ffffffffffffffff821117156102d6576102d561027f565b5b80604052505050565b60006102e9610255565b90506102f582826102ae565b919050565b600067ffffffffffffffff8211156103155761031461027f565b5b602082029050602081019050919050565b600080fd5b6000819050919050565b61033e8161032b565b811461034957600080fd5b50565b60008151905061035b81610335565b92915050565b600061037461036f846102fa565b6102df565b9050808382526020820190506020840283018581111561039757610396610326565b5b835b818110156103c057806103ac888261034c565b845260208401935050602081019050610399565b5050509392505050565b600082601f8301126103df576103de610269565b5b81516103ef848260208601610361565b91505092915050565b600067ffffffffffffffff8211156104135761041261027f565b5b602082029050602081019050919050565b600073ffffffffffffffffffffffffffffffffffffffff82169050919050565b600061044f82610424565b9050919050565b61045f81610444565b811461046a57600080fd5b50565b60008151905061047c81610456565b92915050565b6000610495610490846103f8565b6102df565b905080838252602082019050602084028301858111156104b8576104b7610326565b5b835b818110156104e157806104cd888261046d565b8452602084019350506020810190506104ba565b5050509392505050565b600082601f830112610500576104ff610269565b5b8151610510848260208601610482565b91505092915050565b6000806000606084860312156105325761053161025f565b5b600084015167ffffffffffffffff8111156105505761054f610264565b5b61055c868287016103ca565b935050602084015167ffffffffffffffff81111561057d5761057c610264565b5b610589868287016104eb565b925050604061059a8682870161046d565b9150509250925092565b6105ad81610444565b82525050565b60006020820190506105c860008301846105a4565b92915050565b7f4e487b7100000000000000000000000000000000000000000000000000000000600052603260045260246000fd5b611c5e8061060c6000396000f3fe6080604052600436106100c25760003560e01c8063bc20d3701161007f578063d59ee8f011610059578063d59ee8f01461022b578063e016004514610268578063e2297618146102a5578063f2fde38b146102ce576100c2565b8063bc20d370146101a9578063c1f17866146101c5578063d37626c114610202576100c2565b806312065fe0146100c7578063208d69e3146100f2578063632cb3a11461010e578063715018a61461012a5780637e3546b8146101415780638da5cb5b1461017e575b600080fd5b3480156100d357600080fd5b506100dc6102f7565b6040516100e99190610e50565b60405180910390f35b61010c60048036038101906101079190610f23565b6102ff565b005b61012860048036038101906101239190610fa6565b610746565b005b34801561013657600080fd5b5061013f6109ab565b005b34801561014d57600080fd5b5061016860048036038101906101639190610fe6565b6109bf565b6040516101759190610e50565b60405180910390f35b34801561018a57600080fd5b506101936109d7565b6040516101a09190611022565b60405180910390f35b6101c360048036038101906101be9190611114565b610a00565b005b3480156101d157600080fd5b506101ec60048036038101906101e79190610fe6565b610b2d565b6040516101f99190611022565b60405180910390f35b34801561020e57600080fd5b50610229600480360381019061022491906111ae565b610b60565b005b34801561023757600080fd5b50610252600480360381019061024d9190610fa6565b610bbe565b60405161025f9190611265565b60405180910390f35b34801561027457600080fd5b5061028f600480360381019061028a9190610fa6565b610bed565b60405161029c9190610e50565b60405180910390f35b3480156102b157600080fd5b506102cc60048036038101906102c79190611280565b610c12565b005b3480156102da57600080fd5b506102f560048036038101906102f09190611280565b610c5e565b005b600047905090565b6000600160009054906101000a900473ffffffffffffffffffffffffffffffffffffffff1690508073ffffffffffffffffffffffffffffffffffffffff16630ca69cb2336040518263ffffffff1660e01b815260040161035f9190611022565b602060405180830381865afa15801561037c573d6000803e3d6000fd5b505050506040513d601f19601f820116820180604052508101906103a091906112c2565b6103df576040517f08c379a00000000000000000000000000000000000000000000000000000000081526004016103d69061134c565b60405180910390fd5b8073ffffffffffffffffffffffffffffffffffffffff16630fa9ad3885602086610409919061139b565b6040518363ffffffff1660e01b81526004016104269291906113cf565b602060405180830381865afa158015610443573d6000803e3d6000fd5b505050506040513d601f19601f8201168201806040525081019061046791906112c2565b6104a6576040517f08c379a000000000000000000000000000000000000000000000000000000000815260040161049d9061146a565b60405180910390fd5b8073ffffffffffffffffffffffffffffffffffffffff16635050ceaf868487876040518563ffffffff1660e01b81526004016104e5949392919061162d565b602060405180830381865afa158015610502573d6000803e3d6000fd5b505050506040513d601f19601f8201168201806040525081019061052691906112c2565b610565576040517f08c379a000000000000000000000000000000000000000000000000000000000815260040161055c906116c5565b60405180910390fd5b6000805b86806040019061057991906116f4565b905081101561073d576004600087815260200190815260200160002060008880604001906105a791906116f4565b848181106105b8576105b7611757565b5b90506020020135815260200190815260200160002054915060006004600088815260200190815260200160002060008980604001906105f791906116f4565b8581811061060857610607611757565b5b9050602002013581526020019081526020016000208190555060008760000160208101906106369190611280565b73ffffffffffffffffffffffffffffffffffffffff1683604051610659906117b7565b60006040518083038185875af1925050503d8060008114610696576040519150601f19603f3d011682016040523d82523d6000602084013e61069b565b606091505b505090508061072f57826004600089815260200190815260200160002060008a80604001906106ca91906116f4565b868181106106db576106da611757565b5b905060200201358152602001908152602001600020819055506040517f08c379a000000000000000000000000000000000000000000000000000000000815260040161072690611818565b60405180910390fd5b508080600101915050610569565b50505050505050565b6000600381111561075a576107596111ee565b5b60026000848152602001908152602001600020600083815260200190815260200160002060009054906101000a900460ff16600381111561079e5761079d6111ee565b5b036107de576040517f08c379a00000000000000000000000000000000000000000000000000000000081526004016107d5906118aa565b60405180910390fd5b600260038111156107f2576107f16111ee565b5b60026000848152602001908152602001600020600083815260200190815260200160002060009054906101000a900460ff166003811115610836576108356111ee565b5b03610876576040517f08c379a000000000000000000000000000000000000000000000000000000000815260040161086d90611962565b60405180910390fd5b600380811115610889576108886111ee565b5b60026000848152602001908152602001600020600083815260200190815260200160002060009054906101000a900460ff1660038111156108cd576108cc6111ee565b5b0361090d576040517f08c379a0000000000000000000000000000000000000000000000000000000008152600401610904906119f4565b60405180910390fd5b346004600084815260200190815260200160002060008381526020019081526020016000206000828254610941919061139b565b925050819055507f91231857581d3f39eb59c130b7a2e845c0a9d7609da0d239231941821b1214d782600460008581526020019081526020016000206000848152602001908152602001600020548360405161099f93929190611a14565b60405180910390a15050565b6109b3610ce4565b6109bd6000610d6b565b565b60036020528060005260406000206000915090505481565b60008060009054906101000a900473ffffffffffffffffffffffffffffffffffffffff16905090565b600073ffffffffffffffffffffffffffffffffffffffff166005600085815260200190815260200160002060009054906101000a900473ffffffffffffffffffffffffffffffffffffffff1673ffffffffffffffffffffffffffffffffffffffff1603610aa2576040517f08c379a0000000000000000000000000000000000000000000000000000000008152600401610a9990611abd565b60405180910390fd5b600360008481526020019081526020016000206000815480929190610ac690611add565b91905055507f3f374d4d2c99074ecabc37270238861a119e71645e0dd33c02df487ce064bd16868633878787600360008b8152602001908152602001600020548834604051610b1d99989796959493929190611ba1565b60405180910390a1505050505050565b60056020528060005260406000206000915054906101000a900473ffffffffffffffffffffffffffffffffffffffff1681565b610b68610ce4565b806005600084815260200190815260200160002060006101000a81548173ffffffffffffffffffffffffffffffffffffffff021916908373ffffffffffffffffffffffffffffffffffffffff1602179055505050565b60026020528160005260406000206020528060005260406000206000915091509054906101000a900460ff1681565b6004602052816000526040600020602052806000526040600020600091509150505481565b610c1a610ce4565b80600160006101000a81548173ffffffffffffffffffffffffffffffffffffffff021916908373ffffffffffffffffffffffffffffffffffffffff16021790555050565b610c66610ce4565b600073ffffffffffffffffffffffffffffffffffffffff168173ffffffffffffffffffffffffffffffffffffffff1603610cd85760006040517f1e4fbdf7000000000000000000000000000000000000000000000000000000008152600401610ccf9190611022565b60405180910390fd5b610ce181610d6b565b50565b610cec610e2f565b73ffffffffffffffffffffffffffffffffffffffff16610d0a6109d7565b73ffffffffffffffffffffffffffffffffffffffff1614610d6957610d2d610e2f565b6040517f118cdaa7000000000000000000000000000000000000000000000000000000008152600401610d609190611022565b60405180910390fd5b565b60008060009054906101000a900473ffffffffffffffffffffffffffffffffffffffff169050816000806101000a81548173ffffffffffffffffffffffffffffffffffffffff021916908373ffffffffffffffffffffffffffffffffffffffff1602179055508173ffffffffffffffffffffffffffffffffffffffff168173ffffffffffffffffffffffffffffffffffffffff167f8be0079c531659141344cd1fd0a4f28419497f9722a3daafe3b4186f6b6457e060405160405180910390a35050565b600033905090565b6000819050919050565b610e4a81610e37565b82525050565b6000602082019050610e656000830184610e41565b92915050565b600080fd5b600080fd5b600080fd5b600060608284031215610e9057610e8f610e75565b5b81905092915050565b610ea281610e37565b8114610ead57600080fd5b50565b600081359050610ebf81610e99565b92915050565b600073ffffffffffffffffffffffffffffffffffffffff82169050919050565b6000610ef082610ec5565b9050919050565b610f0081610ee5565b8114610f0b57600080fd5b50565b600081359050610f1d81610ef7565b92915050565b60008060008060808587031215610f3d57610f3c610e6b565b5b600085013567ffffffffffffffff811115610f5b57610f5a610e70565b5b610f6787828801610e7a565b9450506020610f7887828801610eb0565b9350506040610f8987828801610eb0565b9250506060610f9a87828801610f0e565b91505092959194509250565b60008060408385031215610fbd57610fbc610e6b565b5b6000610fcb85828601610eb0565b9250506020610fdc85828601610eb0565b9150509250929050565b600060208284031215610ffc57610ffb610e6b565b5b600061100a84828501610eb0565b91505092915050565b61101c81610ee5565b82525050565b60006020820190506110376000830184611013565b92915050565b600080fd5b600080fd5b600080fd5b60008083601f8401126110625761106161103d565b5b8235905067ffffffffffffffff81111561107f5761107e611042565b5b60208301915083600182028301111561109b5761109a611047565b5b9250929050565b600061ffff82169050919050565b6110b9816110a2565b81146110c457600080fd5b50565b6000813590506110d6816110b0565b92915050565b60008115159050919050565b6110f1816110dc565b81146110fc57600080fd5b50565b60008135905061110e816110e8565b92915050565b60008060008060008060a0878903121561113157611130610e6b565b5b600087013567ffffffffffffffff81111561114f5761114e610e70565b5b61115b89828a0161104c565b9650965050602061116e89828a01610f0e565b945050604061117f89828a01610eb0565b935050606061119089828a016110c7565b92505060806111a189828a016110ff565b9150509295509295509295565b600080604083850312156111c5576111c4610e6b565b5b60006111d385828601610eb0565b92505060206111e485828601610f0e565b9150509250929050565b7f4e487b7100000000000000000000000000000000000000000000000000000000600052602160045260246000fd5b6004811061122e5761122d6111ee565b5b50565b600081905061123f8261121d565b919050565b600061124f82611231565b9050919050565b61125f81611244565b82525050565b600060208201905061127a6000830184611256565b92915050565b60006020828403121561129657611295610e6b565b5b60006112a484828501610f0e565b91505092915050565b6000815190506112bc816110e8565b92915050565b6000602082840312156112d8576112d7610e6b565b5b60006112e6848285016112ad565b91505092915050565b600082825260208201905092915050565b7f52656c61796572206e6f7420617574686f72697a656400000000000000000000600082015250565b60006113366016836112ef565b915061134182611300565b602082019050919050565b6000602082019050818103600083015261136581611329565b9050919050565b7f4e487b7100000000000000000000000000000000000000000000000000000000600052601160045260246000fd5b60006113a682610e37565b91506113b183610e37565b92508282019050808211156113c9576113c861136c565b5b92915050565b60006040820190506113e46000830185610e41565b6113f16020830184610e41565b9392505050565b7f46696e616c697479206e6f74207265616368656420666f72206d65737361676560008201527f2064656c69766572790000000000000000000000000000000000000000000000602082015250565b60006114546029836112ef565b915061145f826113f8565b604082019050919050565b6000602082019050818103600083015261148381611447565b9050919050565b60006114996020840184610f0e565b905092915050565b6114aa81610ee5565b82525050565b60006114bf6020840184610eb0565b905092915050565b6114d081610e37565b82525050565b600080fd5b600080fd5b600080fd5b60008083356001602003843603038112611502576115016114e0565b5b83810192508235915060208301925067ffffffffffffffff82111561152a576115296114d6565b5b6020820236038313156115405761153f6114db565b5b509250929050565b600082825260208201905092915050565b600080fd5b82818337505050565b60006115738385611548565b93507f07ffffffffffffffffffffffffffffffffffffffffffffffffffffffffffffff8311156115a6576115a5611559565b5b6020830292506115b783858461155e565b82840190509392505050565b6000606083016115d6600084018461148a565b6115e360008601826114a1565b506115f160208401846114b0565b6115fe60208601826114c7565b5061160c60408401846114e5565b858303604087015261161f838284611567565b925050508091505092915050565b6000608082019050818103600083015261164781876115c3565b90506116566020830186611013565b6116636040830185610e41565b6116706060830184610e41565b95945050505050565b7f496e76616c6964206d6573736167652064656c69766572792064617461000000600082015250565b60006116af601d836112ef565b91506116ba82611679565b602082019050919050565b600060208201905081810360008301526116de816116a2565b9050919050565b600080fd5b600080fd5b600080fd5b60008083356001602003843603038112611711576117106116e5565b5b80840192508235915067ffffffffffffffff821115611733576117326116ea565b5b60208301925060208202360383131561174f5761174e6116ef565b5b509250929050565b7f4e487b7100000000000000000000000000000000000000000000000000000000600052603260045260246000fd5b600081905092915050565b50565b60006117a1600083611786565b91506117ac82611791565b600082019050919050565b60006117c282611794565b9150819050919050565b7f43616c6c206661696c6564000000000000000000000000000000000000000000600082015250565b6000611802600b836112ef565b915061180d826117cc565b602082019050919050565b60006020820190508181036000830152611831816117f5565b9050919050565b7f547279696e6720746f20757064617465207468652066656520666f7220616e2060008201527f756e646566696e6564206d657373616765000000000000000000000000000000602082015250565b60006118946031836112ef565b915061189f82611838565b604082019050919050565b600060208201905081810360008301526118c381611887565b9050919050565b7f547279696e6720746f20757064617465207468652066656520666f7220616e2060008201527f616c72656164792064656c69766572656420616e642070616964206d6573736160208201527f6765000000000000000000000000000000000000000000000000000000000000604082015250565b600061194c6042836112ef565b9150611957826118ca565b606082019050919050565b6000602082019050818103600083015261197b8161193f565b9050919050565b7f547279696e6720746f20757064617465207468652066656520666f722061206360008201527f616e63656c6c6564206d65737361676500000000000000000000000000000000602082015250565b60006119de6030836112ef565b91506119e982611982565b604082019050919050565b60006020820190508181036000830152611a0d816119d1565b9050919050565b6000606082019050611a296000830186610e41565b611a366020830185610e41565b611a436040830184610e41565b949350505050565b7f44657374696e6174696f6e20626c6f636b636861696e206e6f7420737570706f60008201527f7274656400000000000000000000000000000000000000000000000000000000602082015250565b6000611aa76024836112ef565b9150611ab282611a4b565b604082019050919050565b60006020820190508181036000830152611ad681611a9a565b9050919050565b6000611ae882610e37565b91507fffffffffffffffffffffffffffffffffffffffffffffffffffffffffffffffff8203611b1a57611b1961136c565b5b600182019050919050565b600082825260208201905092915050565b82818337600083830152505050565b6000601f19601f8301169050919050565b6000611b628385611b25565b9350611b6f838584611b36565b611b7883611b45565b840190509392505050565b611b8c816110a2565b82525050565b611b9b816110dc565b82525050565b6000610100820190508181036000830152611bbd818b8d611b56565b9050611bcc602083018a611013565b611bd96040830189611013565b611be66060830188610e41565b611bf36080830187611b83565b611c0060a0830186610e41565b611c0d60c0830185611b92565b611c1a60e0830184610e41565b9a995050505050505050505056fea2646970667358221220f5737b2e741adb920808568fdd44fd1e31e7d74d36eb95b80840ea893182bca664736f6c634300081b0033",
  "linkReferences": {},
  "deployedLinkReferences": {}
}