{
  "_format": "hh-sol-artifact-1",
  "contractName": "Verification",
  "sourceName": "contracts/Verification.sol",
  "abi": [
    {
      "inputs": [
        {
          "internalType": "uint256[]",
          "name": "_blockChainIds",
          "type": "uint256[]"
        },
        {
          "internalType": "uint256[]",
          "name": "_blockChainNumber",
          "type": "uint256[]"
        },
        {
          "internalType": "address[][]",
          "name": "_adddresses",
          "type": "address[][]"
        }
      ],
      "stateMutability": "nonpayable",
      "type": "constructor"
    },
    {
      "inputs": [
        {
          "internalType": "address",
          "name": "owner",
          "type": "address"
        }
      ],
      "name": "OwnableInvalidOwner",
      "type": "error"
    },
    {
      "inputs": [
        {
          "internalType": "address",
          "name": "account",
          "type": "address"
        }
      ],
      "name": "OwnableUnauthorizedAccount",
      "type": "error"
    },
    {
      "anonymous": false,
      "inputs": [
        {
          "indexed": true,
          "internalType": "address",
          "name": "previousOwner",
          "type": "address"
        },
        {
          "indexed": true,
          "internalType": "address",
          "name": "newOwner",
          "type": "address"
        }
      ],
      "name": "OwnershipTransferred",
      "type": "event"
    },
    {
      "inputs": [
        {
          "internalType": "uint256",
          "name": "",
          "type": "uint256"
        },
        {
          "internalType": "address",
          "name": "",
          "type": "address"
        }
      ],
      "name": "addressesPerChainId",
      "outputs": [
        {
          "internalType": "bool",
          "name": "",
          "type": "bool"
        }
      ],
      "stateMutability": "view",
      "type": "function"
    },
    {
      "inputs": [
        {
          "internalType": "address",
          "name": "",
          "type": "address"
        }
      ],
      "name": "allowedOracles",
      "outputs": [
        {
          "internalType": "bool",
          "name": "",
          "type": "bool"
        }
      ],
      "stateMutability": "view",
      "type": "function"
    },
    {
      "inputs": [
        {
          "internalType": "address",
          "name": "",
          "type": "address"
        }
      ],
      "name": "allowedRelayers",
      "outputs": [
        {
          "internalType": "bool",
          "name": "",
          "type": "bool"
        }
      ],
      "stateMutability": "view",
      "type": "function"
    },
    {
      "inputs": [
        {
          "internalType": "uint256",
          "name": "",
          "type": "uint256"
        }
      ],
      "name": "blocknumberPerChainId",
      "outputs": [
        {
          "internalType": "uint256",
          "name": "",
          "type": "uint256"
        }
      ],
      "stateMutability": "view",
      "type": "function"
    },
    {
      "inputs": [
        {
          "internalType": "address",
          "name": "_sender",
          "type": "address"
        }
      ],
      "name": "checkAllowedRelayers",
      "outputs": [
        {
          "internalType": "bool",
          "name": "",
          "type": "bool"
        }
      ],
      "stateMutability": "view",
      "type": "function"
    },
    {
      "inputs": [
        {
          "internalType": "uint256",
          "name": "_blockChainNumber",
          "type": "uint256"
        },
        {
          "internalType": "uint256",
          "name": "_blockNumber",
          "type": "uint256"
        }
      ],
      "name": "modifyAllowedChains",
      "outputs": [],
      "stateMutability": "nonpayable",
      "type": "function"
    },
    {
      "inputs": [
        {
          "internalType": "uint256",
          "name": "_blockChainNumber",
          "type": "uint256"
        },
        {
          "internalType": "address",
          "name": "_address",
          "type": "address"
        },
        {
          "internalType": "bool",
          "name": "_isAllowed",
          "type": "bool"
        }
      ],
      "name": "modifyEndPoints",
      "outputs": [],
      "stateMutability": "nonpayable",
      "type": "function"
    },
    {
      "inputs": [
        {
          "internalType": "address",
          "name": "_oracleAddress",
          "type": "address"
        },
        {
          "internalType": "bool",
          "name": "_isAllowed",
          "type": "bool"
        }
      ],
      "name": "modifyOracleAddresses",
      "outputs": [],
      "stateMutability": "nonpayable",
      "type": "function"
    },
    {
      "inputs": [
        {
          "internalType": "address",
          "name": "_relayerAddress",
          "type": "address"
        },
        {
          "internalType": "bool",
          "name": "_isAllowed",
          "type": "bool"
        }
      ],
      "name": "modifyRelayerAddresses",
      "outputs": [],
      "stateMutability": "nonpayable",
      "type": "function"
    },
    {
      "inputs": [],
      "name": "owner",
      "outputs": [
        {
          "internalType": "address",
          "name": "",
          "type": "address"
        }
      ],
      "stateMutability": "view",
      "type": "function"
    },
    {
      "inputs": [
        {
          "internalType": "uint256",
          "name": "",
          "type": "uint256"
        },
        {
          "internalType": "uint256",
          "name": "",
          "type": "uint256"
        }
      ],
      "name": "recTrieRootPerChainIdAndBlockNumber",
      "outputs": [
        {
          "internalType": "bytes32",
          "name": "",
          "type": "bytes32"
        }
      ],
      "stateMutability": "view",
      "type": "function"
    },
    {
      "inputs": [],
      "name": "renounceOwnership",
      "outputs": [],
      "stateMutability": "nonpayable",
      "type": "function"
    },
    {
      "inputs": [
        {
          "internalType": "uint256",
          "name": "_blockchain",
          "type": "uint256"
        },
        {
          "internalType": "uint256",
          "name": "_blocknumber",
          "type": "uint256"
        }
      ],
      "name": "setLastBlock",
      "outputs": [],
      "stateMutability": "nonpayable",
      "type": "function"
    },
    {
      "inputs": [
        {
          "internalType": "uint256",
          "name": "_sourceBC",
          "type": "uint256"
        },
        {
          "internalType": "uint256",
          "name": "_blockNumber",
          "type": "uint256"
        },
        {
          "internalType": "bytes32",
          "name": "_reciptTrieRoot",
          "type": "bytes32"
        }
      ],
      "name": "setRecTrieRoot",
      "outputs": [],
      "stateMutability": "nonpayable",
      "type": "function"
    },
    {
      "inputs": [
        {
          "internalType": "address",
          "name": "newOwner",
          "type": "address"
        }
      ],
      "name": "transferOwnership",
      "outputs": [],
      "stateMutability": "nonpayable",
      "type": "function"
    },
    {
      "inputs": [
        {
          "internalType": "uint256",
          "name": "_chainId",
          "type": "uint256"
        },
        {
          "internalType": "address[]",
          "name": "_addresses",
          "type": "address[]"
        },
        {
          "internalType": "bool",
          "name": "_isAllowed",
          "type": "bool"
        }
      ],
      "name": "updateChainAddresses",
      "outputs": [],
      "stateMutability": "nonpayable",
      "type": "function"
    },
    {
      "inputs": [
        {
          "internalType": "uint256",
          "name": "_chainId",
          "type": "uint256"
        },
        {
          "internalType": "uint256",
          "name": "_blockNumber",
          "type": "uint256"
        }
      ],
      "name": "updateChainBlockNumbers",
      "outputs": [],
      "stateMutability": "nonpayable",
      "type": "function"
    },
    {
      "inputs": [
        {
          "internalType": "uint256",
          "name": "_blockchain",
          "type": "uint256"
        },
        {
          "internalType": "uint256",
          "name": "_finalityBlock",
          "type": "uint256"
        }
      ],
      "name": "verifyFinality",
      "outputs": [
        {
          "internalType": "bool",
          "name": "",
          "type": "bool"
        }
      ],
      "stateMutability": "view",
      "type": "function"
    },
    {
      "inputs": [
        {
          "components": [
            {
              "internalType": "bytes",
              "name": "status",
              "type": "bytes"
            },
            {
              "internalType": "uint256",
              "name": "cumulativeGasUsed",
              "type": "uint256"
            },
            {
              "internalType": "bytes",
              "name": "logsBloom",
              "type": "bytes"
            },
            {
              "components": [
                {
                  "internalType": "address",
                  "name": "txAddress",
                  "type": "address"
                },
                {
                  "internalType": "bytes[]",
                  "name": "topics",
                  "type": "bytes[]"
                },
                {
                  "internalType": "bytes",
                  "name": "data",
                  "type": "bytes"
                }
              ],
              "internalType": "struct RlpEncoding.Log[]",
              "name": "logs",
              "type": "tuple[]"
            },
            {
              "internalType": "bytes",
              "name": "txType",
              "type": "bytes"
            },
            {
              "internalType": "bytes",
              "name": "rlpEncTxIndex",
              "type": "bytes"
            }
          ],
          "internalType": "struct RlpEncoding.Receipt",
          "name": "_receipt",
          "type": "tuple"
        },
        {
          "internalType": "bytes[]",
          "name": "_proof",
          "type": "bytes[]"
        },
        {
          "internalType": "address",
          "name": "_msgAddress",
          "type": "address"
        },
        {
          "internalType": "uint256",
          "name": "_sourceBC",
          "type": "uint256"
        },
        {
          "internalType": "uint256",
          "name": "_sourceBlockNumber",
          "type": "uint256"
        }
      ],
      "name": "verifyReceipt",
      "outputs": [
        {
          "internalType": "bool",
          "name": "",
          "type": "bool"
        }
      ],
      "stateMutability": "view",
      "type": "function"
    }
  ],
  "bytecode": "0x608060405234801561001057600080fd5b506040516131eb3803806131eb83398181016040528101906100329190610677565b33600073ffffffffffffffffffffffffffffffffffffffff168173ffffffffffffffffffffffffffffffffffffffff16036100a55760006040517f1e4fbdf700000000000000000000000000000000000000000000000000000000815260040161009c919061072d565b60405180910390fd5b6100b48161020e60201b60201c565b5060005b8351811015610205578281815181106100d4576100d3610748565b5b6020026020010151600460008684815181106100f3576100f2610748565b5b602002602001015181526020019081526020016000208190555060005b82828151811061012357610122610748565b5b6020026020010151518110156101f75760016005600087858151811061014c5761014b610748565b5b60200260200101518152602001908152602001600020600085858151811061017757610176610748565b5b6020026020010151848151811061019157610190610748565b5b602002602001015173ffffffffffffffffffffffffffffffffffffffff1673ffffffffffffffffffffffffffffffffffffffff16815260200190815260200160002060006101000a81548160ff0219169083151502179055508080600101915050610110565b5080806001019150506100b8565b50505050610777565b60008060009054906101000a900473ffffffffffffffffffffffffffffffffffffffff169050816000806101000a81548173ffffffffffffffffffffffffffffffffffffffff021916908373ffffffffffffffffffffffffffffffffffffffff1602179055508173ffffffffffffffffffffffffffffffffffffffff168173ffffffffffffffffffffffffffffffffffffffff167f8be0079c531659141344cd1fd0a4f28419497f9722a3daafe3b4186f6b6457e060405160405180910390a35050565b6000604051905090565b600080fd5b600080fd5b600080fd5b6000601f19601f8301169050919050565b7f4e487b7100000000000000000000000000000000000000000000000000000000600052604160045260246000fd5b610334826102eb565b810181811067ffffffffffffffff82111715610353576103526102fc565b5b80604052505050565b60006103666102d2565b9050610372828261032b565b919050565b600067ffffffffffffffff821115610392576103916102fc565b5b602082029050602081019050919050565b600080fd5b6000819050919050565b6103bb816103a8565b81146103c657600080fd5b50565b6000815190506103d8816103b2565b92915050565b60006103f16103ec84610377565b61035c565b90508083825260208201905060208402830185811115610414576104136103a3565b5b835b8181101561043d578061042988826103c9565b845260208401935050602081019050610416565b5050509392505050565b600082601f83011261045c5761045b6102e6565b5b815161046c8482602086016103de565b91505092915050565b600067ffffffffffffffff8211156104905761048f6102fc565b5b602082029050602081019050919050565b600067ffffffffffffffff8211156104bc576104bb6102fc565b5b602082029050602081019050919050565b600073ffffffffffffffffffffffffffffffffffffffff82169050919050565b60006104f8826104cd565b9050919050565b610508816104ed565b811461051357600080fd5b50565b600081519050610525816104ff565b92915050565b600061053e610539846104a1565b61035c565b90508083825260208201905060208402830185811115610561576105606103a3565b5b835b8181101561058a57806105768882610516565b845260208401935050602081019050610563565b5050509392505050565b600082601f8301126105a9576105a86102e6565b5b81516105b984826020860161052b565b91505092915050565b60006105d56105d084610475565b61035c565b905080838252602082019050602084028301858111156105f8576105f76103a3565b5b835b8181101561063f57805167ffffffffffffffff81111561061d5761061c6102e6565b5b80860161062a8982610594565b855260208501945050506020810190506105fa565b5050509392505050565b600082601f83011261065e5761065d6102e6565b5b815161066e8482602086016105c2565b91505092915050565b6000806000606084860312156106905761068f6102dc565b5b600084015167ffffffffffffffff8111156106ae576106ad6102e1565b5b6106ba86828701610447565b935050602084015167ffffffffffffffff8111156106db576106da6102e1565b5b6106e786828701610447565b925050604084015167ffffffffffffffff811115610708576107076102e1565b5b61071486828701610649565b9150509250925092565b610727816104ed565b82525050565b6000602082019050610742600083018461071e565b92915050565b7f4e487b7100000000000000000000000000000000000000000000000000000000600052603260045260246000fd5b612a65806107866000396000f3fe608060405234801561001057600080fd5b50600436106101215760003560e01c8063644eb0cf116100ad578063918cb0fd11610071578063918cb0fd1461031657806396bc1e8f14610332578063a21ffc8414610362578063be1bf4a514610392578063f2fde38b146103ae57610121565b8063644eb0cf14610286578063715018a6146102b65780637e8dd8cd146102c0578063898dad60146102dc5780638da5cb5b146102f857610121565b806324c80f81116100f457806324c80f81146101be578063388476f6146101da5780634574cda91461020a57806347609d2c1461023a5780635b85a8a51461026a57610121565b80630ca69cb2146101265780630fa9ad381461015657806317a4294b1461018657806321746aae146101a2575b600080fd5b610140600480360381019061013b9190611a01565b6103ca565b60405161014d9190611a49565b60405180910390f35b610170600480360381019061016b9190611a9a565b6103d5565b60405161017d9190611a49565b60405180910390f35b6101a0600480360381019061019b9190611b06565b6103f6565b005b6101bc60048036038101906101b79190611a9a565b61046b565b005b6101d860048036038101906101d39190611b8f565b61048f565b005b6101f460048036038101906101ef9190611be2565b6104bf565b6040516102019190611c1e565b60405180910390f35b610224600480360381019061021f9190611c39565b6104d7565b6040516102319190611a49565b60405180910390f35b610254600480360381019061024f9190611a9a565b610506565b6040516102619190611c88565b60405180910390f35b610284600480360381019061027f9190611a9a565b61052b565b005b6102a0600480360381019061029b9190611a01565b61054f565b6040516102ad9190611a49565b60405180910390f35b6102be61056f565b005b6102da60048036038101906102d59190611dfc565b610583565b005b6102f660048036038101906102f19190611a9a565b61062c565b005b61030061064a565b60405161030d9190611e7a565b60405180910390f35b610330600480360381019061032b9190611e95565b610673565b005b61034c6004803603810190610347919061208f565b6106d6565b6040516103599190611a49565b60405180910390f35b61037c60048036038101906103779190611a01565b610817565b6040516103899190611a49565b60405180910390f35b6103ac60048036038101906103a79190611e95565b610837565b005b6103c860048036038101906103c39190611a01565b61089a565b005b600060019050919050565b60008160046000858152602001908152602001600020541015905092915050565b6103fe610920565b806005600085815260200190815260200160002060008473ffffffffffffffffffffffffffffffffffffffff1673ffffffffffffffffffffffffffffffffffffffff16815260200190815260200160002060006101000a81548160ff021916908315150217905550505050565b610473610920565b8060046000848152602001908152602001600020819055505050565b33816003600086815260200190815260200160002060008581526020019081526020016000208190555050505050565b60046020528060005260406000206000915090505481565b60056020528160005260406000206020528060005260406000206000915091509054906101000a900460ff1681565b6003602052816000526040600020602052806000526040600020600091509150505481565b610533610920565b8060046000848152602001908152602001600020819055505050565b60016020528060005260406000206000915054906101000a900460ff1681565b610577610920565b61058160006109a7565b565b61058b610920565b60005b825181101561062657816005600086815260200190815260200160002060008584815181106105c0576105bf612142565b5b602002602001015173ffffffffffffffffffffffffffffffffffffffff1673ffffffffffffffffffffffffffffffffffffffff16815260200190815260200160002060006101000a81548160ff021916908315150217905550808060010191505061058e565b50505050565b33816004600085815260200190815260200160002081905550505050565b60008060009054906101000a900473ffffffffffffffffffffffffffffffffffffffff16905090565b61067b610920565b80600260008473ffffffffffffffffffffffffffffffffffffffff1673ffffffffffffffffffffffffffffffffffffffff16815260200190815260200160002060006101000a81548160ff0219169083151502179055505050565b600082846005600083815260200190815260200160002060008273ffffffffffffffffffffffffffffffffffffffff1673ffffffffffffffffffffffffffffffffffffffff16815260200190815260200160002060009054906101000a900460ff16610777576040517f08c379a000000000000000000000000000000000000000000000000000000000815260040161076e906121f4565b60405180910390fd5b61080a60036000878152602001908152602001600020600086815260200190815260200160002054886107b28b6107ad906124c7565b610a6b565b8b8060a001906107c291906124e9565b8080601f016020809104026020016040519081016040528093929190818152602001838380828437600081840152601f19601f82011690508083019250505050505050610de4565b9250505095945050505050565b60026020528060005260406000206000915054906101000a900460ff1681565b61083f610920565b80600160008473ffffffffffffffffffffffffffffffffffffffff1673ffffffffffffffffffffffffffffffffffffffff16815260200190815260200160002060006101000a81548160ff0219169083151502179055505050565b6108a2610920565b600073ffffffffffffffffffffffffffffffffffffffff168173ffffffffffffffffffffffffffffffffffffffff16036109145760006040517f1e4fbdf700000000000000000000000000000000000000000000000000000000815260040161090b9190611e7a565b60405180910390fd5b61091d816109a7565b50565b610928610fe5565b73ffffffffffffffffffffffffffffffffffffffff1661094661064a565b73ffffffffffffffffffffffffffffffffffffffff16146109a557610969610fe5565b6040517f118cdaa700000000000000000000000000000000000000000000000000000000815260040161099c9190611e7a565b60405180910390fd5b565b60008060009054906101000a900473ffffffffffffffffffffffffffffffffffffffff169050816000806101000a81548173ffffffffffffffffffffffffffffffffffffffff021916908373ffffffffffffffffffffffffffffffffffffffff1602179055508173ffffffffffffffffffffffffffffffffffffffff168173ffffffffffffffffffffffffffffffffffffffff167f8be0079c531659141344cd1fd0a4f28419497f9722a3daafe3b4186f6b6457e060405160405180910390a35050565b6060600082606001515167ffffffffffffffff811115610a8e57610a8d611cb9565b5b604051908082528060200260200182016040528015610ac157816020015b6060815260200190600190039081610aac5790505b50905060005b836060015151811015610c5d576000600367ffffffffffffffff811115610af157610af0611cb9565b5b604051908082528060200260200182016040528015610b2457816020015b6060815260200190600190039081610b0f5790505b509050610b7185606001518381518110610b4157610b40612142565b5b602002602001015160000151604051602001610b5d9190612594565b604051602081830303815290604052610fed565b81600081518110610b8557610b84612142565b5b6020026020010181905250610bbd85606001518381518110610baa57610ba9612142565b5b6020026020010151602001516000611066565b81600181518110610bd157610bd0612142565b5b6020026020010181905250610c0785606001518381518110610bf657610bf5612142565b5b602002602001015160400151610fed565b81600281518110610c1b57610c1a612142565b5b6020026020010181905250610c31816001611066565b838381518110610c4457610c43612142565b5b6020026020010181905250508080600101915050610ac7565b506000600467ffffffffffffffff811115610c7b57610c7a611cb9565b5b604051908082528060200260200182016040528015610cae57816020015b6060815260200190600190039081610c995790505b509050610cbe8460000151610fed565b81600081518110610cd257610cd1612142565b5b6020026020010181905250610cf2610ced8560200151611163565b610fed565b81600181518110610d0657610d05612142565b5b6020026020010181905250610d1e8460400151610fed565b81600281518110610d3257610d31612142565b5b6020026020010181905250610d48826001611066565b81600381518110610d5c57610d5b612142565b5b60200260200101819052506000610d74826001611066565b90507fbc36789e7a1e281436464229828f817d6612f7b477d66591ff96a9e064bcc98a85608001518051906020012014610dd857846080015181604051602001610dbf929190612620565b6040516020818303038152906040529350505050610ddf565b8093505050505b919050565b60008085905060005b8551811015610fd6576000868281518110610e0b57610e0a612142565b5b6020026020010151905080805190602001208314610e2f5760009350505050610fdd565b6000610e42610e3d83611268565b611296565b90506011815103610f2f576000600284610e5c91906126a2565b905086518110610e7457600095505050505050610fdd565b6000878281518110610e8957610e88612142565b5b602001015160f81c60f81b60f81c90506000600286610ea891906126d3565b14610eb657600f8116610ebf565b60048160ff16901c5b905060108160ff1610610edb5760009650505050505050610fdd565b6000838260ff1681518110610ef357610ef2612142565b5b602002602001015190506000816000015103610f19576000975050505050505050610fdd565b610f22816113a5565b60001b9650505050610fc7565b6002815103610fb95760018851610f469190612704565b8303610f8b578680519060200120610f7882600181518110610f6b57610f6a612142565b5b60200260200101516113ff565b8051906020012014945050505050610fdd565b610faf81600181518110610fa257610fa1612142565b5b60200260200101516113a5565b60001b9350610fc6565b6000945050505050610fdd565b5b50508080600101915050610ded565b5060009150505b949350505050565b600033905090565b606060018251148015611024575060808260008151811061101157611010612142565b5b602001015160f81c60f81b60f81c60ff16105b1561103157819050611061565b61103d82516080611492565b8260405160200161104f929190612620565b60405160208183030381529060405290505b919050565b60608082156110cc5760005b84518110156110c6578185828151811061108f5761108e612142565b5b60200260200101516040516020016110a8929190612620565b60405160208183030381529060405291508080600101915050611072565b5061112d565b60005b845181101561112b57816110fc8683815181106110ef576110ee612142565b5b6020026020010151610fed565b60405160200161110d929190612620565b604051602081830303815290604052915080806001019150506110cf565b505b611139815160c0611492565b8160405160200161114b929190612620565b60405160208183030381529060405291505092915050565b6060600082905060005b6000821461118f57808061118090612738565b915050600882901c915061116d565b60008167ffffffffffffffff8111156111ab576111aa611cb9565b5b6040519080825280601f01601f1916602001820160405280156111dd5781602001600182028036833780820191505090505b50905060005b8281101561125c578560f81b82826001866111fe9190612704565b6112089190612704565b8151811061121957611218612142565b5b60200101907effffffffffffffffffffffffffffffffffffffffffffffffffffffffffffff1916908160001a905350600886901c955080806001019150506111e3565b50809350505050919050565b611270611975565b600060208301905060405180604001604052808451815260200182815250915050919050565b60606112a182611614565b6112aa57600080fd5b60006112b583611661565b905060008167ffffffffffffffff8111156112d3576112d2611cb9565b5b60405190808252806020026020018201604052801561130c57816020015b6112f9611975565b8152602001906001900390816112f15790505b509050600061131e85602001516116ee565b856020015161132d9190612780565b9050600080600090505b8481101561139857611348836117ad565b915060405180604001604052808381526020018481525084828151811061137257611371612142565b5b602002602001018190525081836113899190612780565b92508080600101915050611337565b5082945050505050919050565b60008082600001511180156113bf57506021826000015111155b6113c857600080fd5b6000806113d484611889565b9150915060008251905060208210156113f457816020036101000a810490505b809350505050919050565b6060600082600001511161141257600080fd5b60008061141e84611889565b9150915060008167ffffffffffffffff81111561143e5761143d611cb9565b5b6040519080825280601f01601f1916602001820160405280156114705781602001600182028036833780820191505090505b50905060008160200190506114868482856118d3565b81945050505050919050565b606060388310156114cf5781836114a99190612780565b6040516020016114b991906127f7565b604051602081830303815290604052905061160e565b600083905060005b600082146114f95780806114ea90612738565b915050600882901c91506114d7565b60008167ffffffffffffffff81111561151557611514611cb9565b5b6040519080825280601f01601f1916602001820160405280156115475781602001600182028036833780820191505090505b50905060005b828110156115ce576008816115629190612812565b87901c60f81b82826001866115779190612704565b6115819190612704565b8151811061159257611591612142565b5b60200101907effffffffffffffffffffffffffffffffffffffffffffffffffffffffffffff1916908160001a905350808060010191505061154d565b50603785836115dd9190612780565b6115e79190612780565b816040516020016115f9929190612854565b60405160208183030381529060405293505050505b92915050565b60008082600001510361162a576000905061165c565b60008083602001519050805160001a915060c060ff168260ff1610156116555760009250505061165c565b6001925050505b919050565b60008082600001510361167757600090506116e9565b60008061168784602001516116ee565b84602001516116969190612780565b90506000846000015185602001516116ae9190612780565b90505b808210156116e2576116c2826117ad565b826116cd9190612780565b915082806116da90612738565b9350506116b1565b8293505050505b919050565b600080825160001a9050608060ff1681101561170e5760009150506117a8565b60b860ff16811080611733575060c060ff168110158015611732575060f860ff1681105b5b156117425760019150506117a8565b60c060ff1681101561177d5760018060b861175d919061287c565b60ff168261176b9190612704565b6117759190612780565b9150506117a8565b60018060f861178c919061287c565b60ff168261179a9190612704565b6117a49190612780565b9150505b919050565b6000806000835160001a9050608060ff168110156117ce576001915061187f565b60b860ff168110156117fd576001608060ff16826117ec9190612704565b6117f69190612780565b915061187e565b60c060ff1681101561182d5760b78103600185019450806020036101000a8551046001820181019350505061187d565b60f860ff1681101561185c57600160c060ff168261184b9190612704565b6118559190612780565b915061187c565b60f78103600185019450806020036101000a855104600182018101935050505b5b5b5b8192505050919050565b600080600061189b84602001516116ee565b905060008185602001516118af9190612780565b905060008286600001516118c39190612704565b9050818194509450505050915091565b6000810315611970575b602060ff1681106119275782518252602060ff16836118fc9190612780565b9250602060ff168261190e9190612780565b9150602060ff16816119209190612704565b90506118dd565b600081111561196f576000600182602060ff166119449190612704565b61010061195191906129e4565b61195b9190612704565b905080198451168184511681811785525050505b5b505050565b604051806040016040528060008152602001600081525090565b6000604051905090565b600080fd5b600080fd5b600073ffffffffffffffffffffffffffffffffffffffff82169050919050565b60006119ce826119a3565b9050919050565b6119de816119c3565b81146119e957600080fd5b50565b6000813590506119fb816119d5565b92915050565b600060208284031215611a1757611a16611999565b5b6000611a25848285016119ec565b91505092915050565b60008115159050919050565b611a4381611a2e565b82525050565b6000602082019050611a5e6000830184611a3a565b92915050565b6000819050919050565b611a7781611a64565b8114611a8257600080fd5b50565b600081359050611a9481611a6e565b92915050565b60008060408385031215611ab157611ab0611999565b5b6000611abf85828601611a85565b9250506020611ad085828601611a85565b9150509250929050565b611ae381611a2e565b8114611aee57600080fd5b50565b600081359050611b0081611ada565b92915050565b600080600060608486031215611b1f57611b1e611999565b5b6000611b2d86828701611a85565b9350506020611b3e868287016119ec565b9250506040611b4f86828701611af1565b9150509250925092565b6000819050919050565b611b6c81611b59565b8114611b7757600080fd5b50565b600081359050611b8981611b63565b92915050565b600080600060608486031215611ba857611ba7611999565b5b6000611bb686828701611a85565b9350506020611bc786828701611a85565b9250506040611bd886828701611b7a565b9150509250925092565b600060208284031215611bf857611bf7611999565b5b6000611c0684828501611a85565b91505092915050565b611c1881611a64565b82525050565b6000602082019050611c336000830184611c0f565b92915050565b60008060408385031215611c5057611c4f611999565b5b6000611c5e85828601611a85565b9250506020611c6f858286016119ec565b9150509250929050565b611c8281611b59565b82525050565b6000602082019050611c9d6000830184611c79565b92915050565b600080fd5b6000601f19601f8301169050919050565b7f4e487b7100000000000000000000000000000000000000000000000000000000600052604160045260246000fd5b611cf182611ca8565b810181811067ffffffffffffffff82111715611d1057611d0f611cb9565b5b80604052505050565b6000611d2361198f565b9050611d2f8282611ce8565b919050565b600067ffffffffffffffff821115611d4f57611d4e611cb9565b5b602082029050602081019050919050565b600080fd5b6000611d78611d7384611d34565b611d19565b90508083825260208201905060208402830185811115611d9b57611d9a611d60565b5b835b81811015611dc45780611db088826119ec565b845260208401935050602081019050611d9d565b5050509392505050565b600082601f830112611de357611de2611ca3565b5b8135611df3848260208601611d65565b91505092915050565b600080600060608486031215611e1557611e14611999565b5b6000611e2386828701611a85565b935050602084013567ffffffffffffffff811115611e4457611e4361199e565b5b611e5086828701611dce565b9250506040611e6186828701611af1565b9150509250925092565b611e74816119c3565b82525050565b6000602082019050611e8f6000830184611e6b565b92915050565b60008060408385031215611eac57611eab611999565b5b6000611eba858286016119ec565b9250506020611ecb85828601611af1565b9150509250929050565b600080fd5b600060c08284031215611ef057611eef611ed5565b5b81905092915050565b600067ffffffffffffffff821115611f1457611f13611cb9565b5b602082029050602081019050919050565b600080fd5b600067ffffffffffffffff821115611f4557611f44611cb9565b5b611f4e82611ca8565b9050602081019050919050565b82818337600083830152505050565b6000611f7d611f7884611f2a565b611d19565b905082815260208101848484011115611f9957611f98611f25565b5b611fa4848285611f5b565b509392505050565b600082601f830112611fc157611fc0611ca3565b5b8135611fd1848260208601611f6a565b91505092915050565b6000611fed611fe884611ef9565b611d19565b905080838252602082019050602084028301858111156120105761200f611d60565b5b835b8181101561205757803567ffffffffffffffff81111561203557612034611ca3565b5b8086016120428982611fac565b85526020850194505050602081019050612012565b5050509392505050565b600082601f83011261207657612075611ca3565b5b8135612086848260208601611fda565b91505092915050565b600080600080600060a086880312156120ab576120aa611999565b5b600086013567ffffffffffffffff8111156120c9576120c861199e565b5b6120d588828901611eda565b955050602086013567ffffffffffffffff8111156120f6576120f561199e565b5b61210288828901612061565b9450506040612113888289016119ec565b935050606061212488828901611a85565b925050608061213588828901611a85565b9150509295509295909350565b7f4e487b7100000000000000000000000000000000000000000000000000000000600052603260045260246000fd5b600082825260208201905092915050565b7f4576656e742066726f6d20616e20756e617574686f72697a656420656e64706f60008201527f696e740000000000000000000000000000000000000000000000000000000000602082015250565b60006121de602383612171565b91506121e982612182565b604082019050919050565b6000602082019050818103600083015261220d816121d1565b9050919050565b600080fd5b600080fd5b600067ffffffffffffffff82111561223957612238611cb9565b5b602082029050602081019050919050565b6000606082840312156122605761225f612214565b5b61226a6060611d19565b9050600061227a848285016119ec565b600083015250602082013567ffffffffffffffff81111561229e5761229d612219565b5b6122aa84828501612061565b602083015250604082013567ffffffffffffffff8111156122ce576122cd612219565b5b6122da84828501611fac565b60408301525092915050565b60006122f96122f48461221e565b611d19565b9050808382526020820190506020840283018581111561231c5761231b611d60565b5b835b8181101561236357803567ffffffffffffffff81111561234157612340611ca3565b5b80860161234e898261224a565b8552602085019450505060208101905061231e565b5050509392505050565b600082601f83011261238257612381611ca3565b5b81356123928482602086016122e6565b91505092915050565b600060c082840312156123b1576123b0612214565b5b6123bb60c0611d19565b9050600082013567ffffffffffffffff8111156123db576123da612219565b5b6123e784828501611fac565b60008301525060206123fb84828501611a85565b602083015250604082013567ffffffffffffffff81111561241f5761241e612219565b5b61242b84828501611fac565b604083015250606082013567ffffffffffffffff81111561244f5761244e612219565b5b61245b8482850161236d565b606083015250608082013567ffffffffffffffff81111561247f5761247e612219565b5b61248b84828501611fac565b60808301525060a082013567ffffffffffffffff8111156124af576124ae612219565b5b6124bb84828501611fac565b60a08301525092915050565b60006124d3368361239b565b9050919050565b600080fd5b600080fd5b600080fd5b60008083356001602003843603038112612506576125056124da565b5b80840192508235915067ffffffffffffffff821115612528576125276124df565b5b602083019250600182023603831315612544576125436124e4565b5b509250929050565b60008160601b9050919050565b60006125648261254c565b9050919050565b600061257682612559565b9050919050565b61258e612589826119c3565b61256b565b82525050565b60006125a0828461257d565b60148201915081905092915050565b600081519050919050565b600081905092915050565b60005b838110156125e35780820151818401526020810190506125c8565b60008484015250505050565b60006125fa826125af565b61260481856125ba565b93506126148185602086016125c5565b80840191505092915050565b600061262c82856125ef565b915061263882846125ef565b91508190509392505050565b7f4e487b7100000000000000000000000000000000000000000000000000000000600052601260045260246000fd5b7f4e487b7100000000000000000000000000000000000000000000000000000000600052601160045260246000fd5b60006126ad82611a64565b91506126b883611a64565b9250826126c8576126c7612644565b5b828204905092915050565b60006126de82611a64565b91506126e983611a64565b9250826126f9576126f8612644565b5b828206905092915050565b600061270f82611a64565b915061271a83611a64565b925082820390508181111561273257612731612673565b5b92915050565b600061274382611a64565b91507fffffffffffffffffffffffffffffffffffffffffffffffffffffffffffffffff820361277557612774612673565b5b600182019050919050565b600061278b82611a64565b915061279683611a64565b92508282019050808211156127ae576127ad612673565b5b92915050565b600060ff82169050919050565b60008160f81b9050919050565b60006127d9826127c1565b9050919050565b6127f16127ec826127b4565b6127ce565b82525050565b600061280382846127e0565b60018201915081905092915050565b600061281d82611a64565b915061282883611a64565b925082820261283681611a64565b9150828204841483151761284d5761284c612673565b5b5092915050565b600061286082856127e0565b60018201915061287082846125ef565b91508190509392505050565b6000612887826127b4565b9150612892836127b4565b9250828203905060ff8111156128ab576128aa612673565b5b92915050565b60008160011c9050919050565b6000808291508390505b6001851115612908578086048111156128e4576128e3612673565b5b60018516156128f35780820291505b8081029050612901856128b1565b94506128c8565b94509492505050565b60008261292157600190506129dd565b8161292f57600090506129dd565b8160018114612945576002811461294f5761297e565b60019150506129dd565b60ff84111561296157612960612673565b5b8360020a91508482111561297857612977612673565b5b506129dd565b5060208310610133831016604e8410600b84101617156129b35782820a9050838111156129ae576129ad612673565b5b6129dd565b6129c084848460016128be565b925090508184048111156129d7576129d6612673565b5b81810290505b9392505050565b60006129ef82611a64565b91506129fa83611a64565b9250612a277fffffffffffffffffffffffffffffffffffffffffffffffffffffffffffffffff8484612911565b90509291505056fea264697066735822122037f3c194dd9678250bde460af431c10b7652bb094e0e06cf1a6c2639faba993664736f6c634300081b0033",
  "linkReferences": {},
  "deployedLinkReferences": {}
}