{
  "_format": "hh-sol-artifact-1",
  "contractName": "IncomingCommunication",
  "sourceName": "contracts/IncomingCommunication.sol",
  "abi": [
    {
      "inputs": [
        {
          "internalType": "uint256[]",
          "name": "_blockChainIds",
          "type": "uint256[]"
        },
        {
          "internalType": "address[]",
          "name": "_blockChainAddresses",
          "type": "address[]"
        },
        {
          "internalType": "address",
          "name": "_verificationAdress",
          "type": "address"
        }
      ],
      "stateMutability": "payable",
      "type": "constructor"
    },
    {
      "inputs": [
        {
          "internalType": "address",
          "name": "owner",
          "type": "address"
        }
      ],
      "name": "OwnableInvalidOwner",
      "type": "error"
    },
    {
      "inputs": [
        {
          "internalType": "address",
          "name": "account",
          "type": "address"
        }
      ],
      "name": "OwnableUnauthorizedAccount",
      "type": "error"
    },
    {
      "anonymous": false,
      "inputs": [
        {
          "indexed": false,
          "internalType": "address",
          "name": "relayer",
          "type": "address"
        },
        {
          "indexed": false,
          "internalType": "uint256",
          "name": "sourceBC",
          "type": "uint256"
        },
        {
          "indexed": false,
          "internalType": "uint256[]",
          "name": "inboundMessageNumbers",
          "type": "uint256[]"
        },
        {
          "indexed": false,
          "internalType": "bool[]",
          "name": "successfullInbound",
          "type": "bool[]"
        },
        {
          "indexed": false,
          "internalType": "string[]",
          "name": "failureReasons",
          "type": "string[]"
        }
      ],
      "name": "InboundMessagesRes",
      "type": "event"
    },
    {
      "anonymous": false,
      "inputs": [
        {
          "indexed": true,
          "internalType": "address",
          "name": "previousOwner",
          "type": "address"
        },
        {
          "indexed": true,
          "internalType": "address",
          "name": "newOwner",
          "type": "address"
        }
      ],
      "name": "OwnershipTransferred",
      "type": "event"
    },
    {
      "inputs": [],
      "name": "getBalance",
      "outputs": [
        {
          "internalType": "uint256",
          "name": "",
          "type": "uint256"
        }
      ],
      "stateMutability": "view",
      "type": "function"
    },
    {
      "inputs": [
        {
          "internalType": "uint256",
          "name": "",
          "type": "uint256"
        },
        {
          "internalType": "uint256",
          "name": "",
          "type": "uint256"
        }
      ],
      "name": "inMsgStatusPerChainIdAndMsgNumber",
      "outputs": [
        {
          "internalType": "enum IncomingCommunication.IncomingMsgStatus",
          "name": "",
          "type": "uint8"
        }
      ],
      "stateMutability": "view",
      "type": "function"
    },
    {
      "inputs": [
        {
          "components": [
            {
              "internalType": "bytes",
              "name": "status",
              "type": "bytes"
            },
            {
              "internalType": "uint256",
              "name": "cumulativeGasUsed",
              "type": "uint256"
            },
            {
              "internalType": "bytes",
              "name": "logsBloom",
              "type": "bytes"
            },
            {
              "components": [
                {
                  "internalType": "address",
                  "name": "txAddress",
                  "type": "address"
                },
                {
                  "internalType": "bytes[]",
                  "name": "topics",
                  "type": "bytes[]"
                },
                {
                  "internalType": "bytes",
                  "name": "data",
                  "type": "bytes"
                }
              ],
              "internalType": "struct IVerification.Log[]",
              "name": "logs",
              "type": "tuple[]"
            },
            {
              "internalType": "bytes",
              "name": "txType",
              "type": "bytes"
            },
            {
              "internalType": "bytes",
              "name": "rlpEncTxIndex",
              "type": "bytes"
            }
          ],
          "internalType": "struct IVerification.Receipt[]",
          "name": "_receipts",
          "type": "tuple[]"
        },
        {
          "internalType": "bytes[][]",
          "name": "_proofs",
          "type": "bytes[][]"
        },
        {
          "internalType": "address",
          "name": "_relayer",
          "type": "address"
        },
        {
          "internalType": "uint256",
          "name": "_sourceBC",
          "type": "uint256"
        },
        {
          "internalType": "uint256[]",
          "name": "_sourceBlockNumbers",
          "type": "uint256[]"
        }
      ],
      "name": "inboundMessages",
      "outputs": [],
      "stateMutability": "nonpayable",
      "type": "function"
    },
    {
      "inputs": [],
      "name": "owner",
      "outputs": [
        {
          "internalType": "address",
          "name": "",
          "type": "address"
        }
      ],
      "stateMutability": "view",
      "type": "function"
    },
    {
      "inputs": [],
      "name": "renounceOwnership",
      "outputs": [],
      "stateMutability": "nonpayable",
      "type": "function"
    },
    {
      "inputs": [
        {
          "internalType": "uint256",
          "name": "",
          "type": "uint256"
        }
      ],
      "name": "sourceAddresesPerChainId",
      "outputs": [
        {
          "internalType": "address",
          "name": "",
          "type": "address"
        }
      ],
      "stateMutability": "view",
      "type": "function"
    },
    {
      "inputs": [
        {
          "internalType": "address",
          "name": "newOwner",
          "type": "address"
        }
      ],
      "name": "transferOwnership",
      "outputs": [],
      "stateMutability": "nonpayable",
      "type": "function"
    },
    {
      "inputs": [
        {
          "internalType": "uint256",
          "name": "_chainId",
          "type": "uint256"
        },
        {
          "internalType": "address",
          "name": "_address",
          "type": "address"
        }
      ],
      "name": "updateSourceAddresses",
      "outputs": [],
      "stateMutability": "nonpayable",
      "type": "function"
    },
    {
      "inputs": [
        {
          "internalType": "address",
          "name": "_newAddress",
          "type": "address"
        }
      ],
      "name": "updateVerificationContract",
      "outputs": [],
      "stateMutability": "nonpayable",
      "type": "function"
    }
  ],
  "bytecode": "0x6080604052604051612fc5380380612fc583398181016040528101906100259190610519565b33600073ffffffffffffffffffffffffffffffffffffffff168173ffffffffffffffffffffffffffffffffffffffff16036100985760006040517f1e4fbdf700000000000000000000000000000000000000000000000000000000815260040161008f91906105b3565b60405180910390fd5b6100a78161019160201b60201c565b5060005b8351811015610147578281815181106100c7576100c66105ce565b5b6020026020010151600360008684815181106100e6576100e56105ce565b5b6020026020010151815260200190815260200160002060006101000a81548173ffffffffffffffffffffffffffffffffffffffff021916908373ffffffffffffffffffffffffffffffffffffffff16021790555080806001019150506100ab565b5080600160006101000a81548173ffffffffffffffffffffffffffffffffffffffff021916908373ffffffffffffffffffffffffffffffffffffffff1602179055505050506105fd565b60008060009054906101000a900473ffffffffffffffffffffffffffffffffffffffff169050816000806101000a81548173ffffffffffffffffffffffffffffffffffffffff021916908373ffffffffffffffffffffffffffffffffffffffff1602179055508173ffffffffffffffffffffffffffffffffffffffff168173ffffffffffffffffffffffffffffffffffffffff167f8be0079c531659141344cd1fd0a4f28419497f9722a3daafe3b4186f6b6457e060405160405180910390a35050565b6000604051905090565b600080fd5b600080fd5b600080fd5b6000601f19601f8301169050919050565b7f4e487b7100000000000000000000000000000000000000000000000000000000600052604160045260246000fd5b6102b78261026e565b810181811067ffffffffffffffff821117156102d6576102d561027f565b5b80604052505050565b60006102e9610255565b90506102f582826102ae565b919050565b600067ffffffffffffffff8211156103155761031461027f565b5b602082029050602081019050919050565b600080fd5b6000819050919050565b61033e8161032b565b811461034957600080fd5b50565b60008151905061035b81610335565b92915050565b600061037461036f846102fa565b6102df565b9050808382526020820190506020840283018581111561039757610396610326565b5b835b818110156103c057806103ac888261034c565b845260208401935050602081019050610399565b5050509392505050565b600082601f8301126103df576103de610269565b5b81516103ef848260208601610361565b91505092915050565b600067ffffffffffffffff8211156104135761041261027f565b5b602082029050602081019050919050565b600073ffffffffffffffffffffffffffffffffffffffff82169050919050565b600061044f82610424565b9050919050565b61045f81610444565b811461046a57600080fd5b50565b60008151905061047c81610456565b92915050565b6000610495610490846103f8565b6102df565b905080838252602082019050602084028301858111156104b8576104b7610326565b5b835b818110156104e157806104cd888261046d565b8452602084019350506020810190506104ba565b5050509392505050565b600082601f830112610500576104ff610269565b5b8151610510848260208601610482565b91505092915050565b6000806000606084860312156105325761053161025f565b5b600084015167ffffffffffffffff8111156105505761054f610264565b5b61055c868287016103ca565b935050602084015167ffffffffffffffff81111561057d5761057c610264565b5b610589868287016104eb565b925050604061059a8682870161046d565b9150509250925092565b6105ad81610444565b82525050565b60006020820190506105c860008301846105a4565b92915050565b7f4e487b7100000000000000000000000000000000000000000000000000000000600052603260045260246000fd5b6129b98061060c6000396000f3fe608060405234801561001057600080fd5b50600436106100935760003560e01c8063715018a611610066578063715018a61461011e5780638da5cb5b14610128578063c89c038614610146578063e229761814610176578063f2fde38b1461019257610093565b80630d4f7b08146100985780630e05e15d146100b457806312065fe0146100e4578063273a6b0e14610102575b600080fd5b6100b260048036038101906100ad9190611290565b6101ae565b005b6100ce60048036038101906100c991906112d0565b61020c565b6040516100db9190611387565b60405180910390f35b6100ec61023b565b6040516100f991906113b1565b60405180910390f35b61011c6004803603810190610117919061178a565b610243565b005b610126610dd0565b005b610130610de4565b60405161013d9190611871565b60405180910390f35b610160600480360381019061015b919061188c565b610e0d565b60405161016d9190611871565b60405180910390f35b610190600480360381019061018b91906118b9565b610e40565b005b6101ac60048036038101906101a791906118b9565b610e8c565b005b6101b6610f12565b806003600084815260200190815260200160002060006101000a81548173ffffffffffffffffffffffffffffffffffffffff021916908373ffffffffffffffffffffffffffffffffffffffff1602179055505050565b60026020528160005260406000206020528060005260406000206000915091509054906101000a900460ff1681565b600047905090565b600073ffffffffffffffffffffffffffffffffffffffff166003600085815260200190815260200160002060009054906101000a900473ffffffffffffffffffffffffffffffffffffffff1673ffffffffffffffffffffffffffffffffffffffff16036102e5576040517f08c379a00000000000000000000000000000000000000000000000000000000081526004016102dc90611943565b60405180910390fd5b6000600160009054906101000a900473ffffffffffffffffffffffffffffffffffffffff1690508073ffffffffffffffffffffffffffffffffffffffff16630ca69cb2336040518263ffffffff1660e01b81526004016103459190611871565b602060405180830381865afa158015610362573d6000803e3d6000fd5b505050506040513d601f19601f82011682018060405250810190610386919061199b565b6103c5576040517f08c379a00000000000000000000000000000000000000000000000000000000081526004016103bc90611a14565b60405180910390fd5b60008888905067ffffffffffffffff8111156103e4576103e3611442565b5b6040519080825280602002602001820160405280156104125781602001602082028036833780820191505090505b50905060008989905067ffffffffffffffff81111561043457610433611442565b5b6040519080825280602002602001820160405280156104625781602001602082028036833780820191505090505b50905060008a8a905067ffffffffffffffff81111561048457610483611442565b5b6040519080825280602002602001820160405280156104b757816020015b60608152602001906001900390816104a25790505b5090506104c2611171565b60005b8c8c9050811015610d825760008d8d838181106104e5576104e4611a34565b5b90506020028101906104f79190611a72565b80606001906105069190611a9a565b90500361059157600085828151811061052257610521611a34565b5b602002602001018181525050600084828151811061054357610542611a34565b5b6020026020010190151590811515815250506040518060600160405280602581526020016129146025913983828151811061058157610580611a34565b5b6020026020010181905250610d75565b60005b8d8d838181106105a7576105a6611a34565b5b90506020028101906105b99190611a72565b80606001906105c89190611a9a565b9050811015610764578d8d838181106105e4576105e3611a34565b5b90506020028101906105f69190611a72565b80606001906106059190611a9a565b8281811061061657610615611a34565b5b90506020028101906106289190611afd565b600001602081019061063a91906118b9565b73ffffffffffffffffffffffffffffffffffffffff16600360008c815260200190815260200160002060009054906101000a900473ffffffffffffffffffffffffffffffffffffffff1673ffffffffffffffffffffffffffffffffffffffff1603610757576107508e8e848181106106b5576106b4611a34565b5b90506020028101906106c79190611a72565b80606001906106d69190611a9a565b838181106106e7576106e6611a34565b5b90506020028101906106f99190611afd565b80604001906107089190611b25565b8080601f016020809104026020016040519081016040528093929190818152602001838380828437600081840152601f19601f82011690508083019250505050505050610f99565b9250610764565b8080600101915050610594565b508160a0015185828151811061077d5761077c611a34565b5b6020026020010181815250506001600381111561079d5761079c611310565b5b600260008b815260200190815260200160002060008460a00151815260200190815260200160002060009054906101000a900460ff1660038111156107e5576107e4611310565b5b0361084d5760008482815181106107ff576107fe611a34565b5b6020026020010190151590811515815250506040518060600160405280602281526020016129396022913983828151811061083d5761083c611a34565b5b6020026020010181905250610d75565b6002600381111561086157610860611310565b5b600260008b815260200190815260200160002060008460a00151815260200190815260200160002060009054906101000a900460ff1660038111156108a9576108a8611310565b5b036109115760008482815181106108c3576108c2611a34565b5b6020026020010190151590811515815250506040518060600160405280602281526020016128f26022913983828151811061090157610900611a34565b5b6020026020010181905250610d75565b8573ffffffffffffffffffffffffffffffffffffffff16630fa9ad388a846080015161ffff168b8b8681811061094a57610949611a34565b5b9050602002013561095b9190611bb7565b6040518363ffffffff1660e01b8152600401610978929190611beb565b602060405180830381865afa158015610995573d6000803e3d6000fd5b505050506040513d601f19601f820116820180604052508101906109b9919061199b565b610a205760008482815181106109d2576109d1611a34565b5b60200260200101901515908115158152505060405180606001604052806029815260200161295b60299139838281518110610a1057610a0f611a34565b5b6020026020010181905250610d75565b8573ffffffffffffffffffffffffffffffffffffffff166396bc1e8f8e8e84818110610a4f57610a4e611a34565b5b9050602002810190610a619190611a72565b8d8481518110610a7457610a73611a34565b5b6020026020010151600360008e815260200190815260200160002060009054906101000a900473ffffffffffffffffffffffffffffffffffffffff168d8d8d88818110610ac457610ac3611a34565b5b905060200201356040518663ffffffff1660e01b8152600401610aeb9594939291906121e4565b602060405180830381865afa158015610b08573d6000803e3d6000fd5b505050506040513d601f19601f82011682018060405250810190610b2c919061199b565b610bb0576000848281518110610b4557610b44611a34565b5b6020026020010190151590811515815250506040518060400160405280602081526020017f496e626f756e643a20496e76616c696420696e636c7573696f6e2070726f6f66815250838281518110610ba057610b9f611a34565b5b6020026020010181905250610d75565b6001848281518110610bc557610bc4611a34565b5b6020026020010190151590811515815250506001600260008b815260200190815260200160002060008460a00151815260200190815260200160002060006101000a81548160ff02191690836003811115610c2357610c22611310565b5b02179055506000826040015190508073ffffffffffffffffffffffffffffffffffffffff1663908ab4b184602001518c86600001516040518463ffffffff1660e01b8152600401610c769392919061228f565b600060405180830381600087803b158015610c9057600080fd5b505af1925050508015610ca1575060015b610d7257610cad6122da565b806308c379a003610d615750610cc16122fc565b80610ccc5750610d63565b6003600260008d815260200190815260200160002060008660a00151815260200190815260200160002060006101000a81548160ff02191690836003811115610d1857610d17611310565b5b021790555080604051602001610d2e919061241f565b604051602081830303815290604052858481518110610d5057610d4f611a34565b5b602002602001018190525050610d6d565b505b3d6000803e3d6000fd5b610d73565b5b505b80806001019150506104c5565b507f966b9e60ae5ada1d614df1a7330798261c8c3ffe06dcdc0e144c6c179ee820e98989868686604051610dba9594939291906126ba565b60405180910390a1505050505050505050505050565b610dd8610f12565b610de260006110a5565b565b60008060009054906101000a900473ffffffffffffffffffffffffffffffffffffffff16905090565b60036020528060005260406000206000915054906101000a900473ffffffffffffffffffffffffffffffffffffffff1681565b610e48610f12565b80600160006101000a81548173ffffffffffffffffffffffffffffffffffffffff021916908373ffffffffffffffffffffffffffffffffffffffff16021790555050565b610e94610f12565b600073ffffffffffffffffffffffffffffffffffffffff168173ffffffffffffffffffffffffffffffffffffffff1603610f065760006040517f1e4fbdf7000000000000000000000000000000000000000000000000000000008152600401610efd9190611871565b60405180910390fd5b610f0f816110a5565b50565b610f1a611169565b73ffffffffffffffffffffffffffffffffffffffff16610f38610de4565b73ffffffffffffffffffffffffffffffffffffffff1614610f9757610f5b611169565b6040517f118cdaa7000000000000000000000000000000000000000000000000000000008152600401610f8e9190611871565b60405180910390fd5b565b610fa1611171565b610fa9611171565b6000806000806000806000808a806020019051810190610fc9919061281f565b9750975097509750975097509750975087896000018190525086896020019073ffffffffffffffffffffffffffffffffffffffff16908173ffffffffffffffffffffffffffffffffffffffff168152505085896040019073ffffffffffffffffffffffffffffffffffffffff16908173ffffffffffffffffffffffffffffffffffffffff16815250508489606001818152505083896080019061ffff16908161ffff1681525050828960a0018181525050818960c0019015159081151581525050808960e0018181525050889950505050505050505050919050565b60008060009054906101000a900473ffffffffffffffffffffffffffffffffffffffff169050816000806101000a81548173ffffffffffffffffffffffffffffffffffffffff021916908373ffffffffffffffffffffffffffffffffffffffff1602179055508173ffffffffffffffffffffffffffffffffffffffff168173ffffffffffffffffffffffffffffffffffffffff167f8be0079c531659141344cd1fd0a4f28419497f9722a3daafe3b4186f6b6457e060405160405180910390a35050565b600033905090565b60405180610100016040528060608152602001600073ffffffffffffffffffffffffffffffffffffffff168152602001600073ffffffffffffffffffffffffffffffffffffffff16815260200160008152602001600061ffff16815260200160008152602001600015158152602001600081525090565b6000604051905090565b600080fd5b600080fd5b6000819050919050565b61120f816111fc565b811461121a57600080fd5b50565b60008135905061122c81611206565b92915050565b600073ffffffffffffffffffffffffffffffffffffffff82169050919050565b600061125d82611232565b9050919050565b61126d81611252565b811461127857600080fd5b50565b60008135905061128a81611264565b92915050565b600080604083850312156112a7576112a66111f2565b5b60006112b58582860161121d565b92505060206112c68582860161127b565b9150509250929050565b600080604083850312156112e7576112e66111f2565b5b60006112f58582860161121d565b92505060206113068582860161121d565b9150509250929050565b7f4e487b7100000000000000000000000000000000000000000000000000000000600052602160045260246000fd5b600481106113505761134f611310565b5b50565b60008190506113618261133f565b919050565b600061137182611353565b9050919050565b61138181611366565b82525050565b600060208201905061139c6000830184611378565b92915050565b6113ab816111fc565b82525050565b60006020820190506113c660008301846113a2565b92915050565b600080fd5b600080fd5b600080fd5b60008083601f8401126113f1576113f06113cc565b5b8235905067ffffffffffffffff81111561140e5761140d6113d1565b5b60208301915083602082028301111561142a576114296113d6565b5b9250929050565b6000601f19601f8301169050919050565b7f4e487b7100000000000000000000000000000000000000000000000000000000600052604160045260246000fd5b61147a82611431565b810181811067ffffffffffffffff8211171561149957611498611442565b5b80604052505050565b60006114ac6111e8565b90506114b88282611471565b919050565b600067ffffffffffffffff8211156114d8576114d7611442565b5b602082029050602081019050919050565b600067ffffffffffffffff82111561150457611503611442565b5b602082029050602081019050919050565b600080fd5b600067ffffffffffffffff82111561153557611534611442565b5b61153e82611431565b9050602081019050919050565b82818337600083830152505050565b600061156d6115688461151a565b6114a2565b90508281526020810184848401111561158957611588611515565b5b61159484828561154b565b509392505050565b600082601f8301126115b1576115b06113cc565b5b81356115c184826020860161155a565b91505092915050565b60006115dd6115d8846114e9565b6114a2565b90508083825260208201905060208402830185811115611600576115ff6113d6565b5b835b8181101561164757803567ffffffffffffffff811115611625576116246113cc565b5b808601611632898261159c565b85526020850194505050602081019050611602565b5050509392505050565b600082601f830112611666576116656113cc565b5b81356116768482602086016115ca565b91505092915050565b600061169261168d846114bd565b6114a2565b905080838252602082019050602084028301858111156116b5576116b46113d6565b5b835b818110156116fc57803567ffffffffffffffff8111156116da576116d96113cc565b5b8086016116e78982611651565b855260208501945050506020810190506116b7565b5050509392505050565b600082601f83011261171b5761171a6113cc565b5b813561172b84826020860161167f565b91505092915050565b60008083601f84011261174a576117496113cc565b5b8235905067ffffffffffffffff811115611767576117666113d1565b5b602083019150836020820283011115611783576117826113d6565b5b9250929050565b600080600080600080600060a0888a0312156117a9576117a86111f2565b5b600088013567ffffffffffffffff8111156117c7576117c66111f7565b5b6117d38a828b016113db565b9750975050602088013567ffffffffffffffff8111156117f6576117f56111f7565b5b6118028a828b01611706565b95505060406118138a828b0161127b565b94505060606118248a828b0161121d565b935050608088013567ffffffffffffffff811115611845576118446111f7565b5b6118518a828b01611734565b925092505092959891949750929550565b61186b81611252565b82525050565b60006020820190506118866000830184611862565b92915050565b6000602082840312156118a2576118a16111f2565b5b60006118b08482850161121d565b91505092915050565b6000602082840312156118cf576118ce6111f2565b5b60006118dd8482850161127b565b91505092915050565b600082825260208201905092915050565b7f536f7572636520626c6f636b636861696e206e6f7420737570706f7274656400600082015250565b600061192d601f836118e6565b9150611938826118f7565b602082019050919050565b6000602082019050818103600083015261195c81611920565b9050919050565b60008115159050919050565b61197881611963565b811461198357600080fd5b50565b6000815190506119958161196f565b92915050565b6000602082840312156119b1576119b06111f2565b5b60006119bf84828501611986565b91505092915050565b7f52656c61796572206e6f7420617574686f72697a656400000000000000000000600082015250565b60006119fe6016836118e6565b9150611a09826119c8565b602082019050919050565b60006020820190508181036000830152611a2d816119f1565b9050919050565b7f4e487b7100000000000000000000000000000000000000000000000000000000600052603260045260246000fd5b600080fd5b600080fd5b600080fd5b60008235600160c003833603038112611a8e57611a8d611a63565b5b80830191505092915050565b60008083356001602003843603038112611ab757611ab6611a63565b5b80840192508235915067ffffffffffffffff821115611ad957611ad8611a68565b5b602083019250602082023603831315611af557611af4611a6d565b5b509250929050565b600082356001606003833603038112611b1957611b18611a63565b5b80830191505092915050565b60008083356001602003843603038112611b4257611b41611a63565b5b80840192508235915067ffffffffffffffff821115611b6457611b63611a68565b5b602083019250600182023603831315611b8057611b7f611a6d565b5b509250929050565b7f4e487b7100000000000000000000000000000000000000000000000000000000600052601160045260246000fd5b6000611bc2826111fc565b9150611bcd836111fc565b9250828201905080821115611be557611be4611b88565b5b92915050565b6000604082019050611c0060008301856113a2565b611c0d60208301846113a2565b9392505050565b600080fd5b600080fd5b600080fd5b60008083356001602003843603038112611c4057611c3f611c1e565b5b83810192508235915060208301925067ffffffffffffffff821115611c6857611c67611c14565b5b600182023603831315611c7e57611c7d611c19565b5b509250929050565b600082825260208201905092915050565b6000611ca38385611c86565b9350611cb083858461154b565b611cb983611431565b840190509392505050565b6000611cd3602084018461121d565b905092915050565b611ce4816111fc565b82525050565b60008083356001602003843603038112611d0757611d06611c1e565b5b83810192508235915060208301925067ffffffffffffffff821115611d2f57611d2e611c14565b5b602082023603831315611d4557611d44611c19565b5b509250929050565b600082825260208201905092915050565b6000819050919050565b6000611d77602084018461127b565b905092915050565b611d8881611252565b82525050565b60008083356001602003843603038112611dab57611daa611c1e565b5b83810192508235915060208301925067ffffffffffffffff821115611dd357611dd2611c14565b5b602082023603831315611de957611de8611c19565b5b509250929050565b600082825260208201905092915050565b6000819050919050565b6000611e19848484611c97565b90509392505050565b6000602082019050919050565b6000611e3b8385611df1565b935083602084028501611e4d84611e02565b8060005b87811015611e93578484038952611e688284611c23565b611e73868284611e0c565b9550611e7e84611e22565b935060208b019a505050600181019050611e51565b50829750879450505050509392505050565b600060608301611eb86000840184611d68565b611ec56000860182611d7f565b50611ed36020840184611d8e565b8583036020870152611ee6838284611e2f565b92505050611ef76040840184611c23565b8583036040870152611f0a838284611c97565b925050508091505092915050565b6000611f248383611ea5565b905092915050565b600082356001606003833603038112611f4857611f47611c1e565b5b82810191505092915050565b6000602082019050919050565b6000611f6d8385611d4d565b935083602084028501611f7f84611d5e565b8060005b87811015611fc3578484038952611f9a8284611f2c565b611fa48582611f18565b9450611faf83611f54565b925060208a01995050600181019050611f83565b50829750879450505050509392505050565b600060c08301611fe86000840184611c23565b8583036000870152611ffb838284611c97565b9250505061200c6020840184611cc4565b6120196020860182611cdb565b506120276040840184611c23565b858303604087015261203a838284611c97565b9250505061204b6060840184611cea565b858303606087015261205e838284611f61565b9250505061206f6080840184611c23565b8583036080870152612082838284611c97565b9250505061209360a0840184611c23565b85830360a08701526120a6838284611c97565b925050508091505092915050565b600081519050919050565b600082825260208201905092915050565b6000819050602082019050919050565b600081519050919050565b60005b838110156121095780820151818401526020810190506120ee565b60008484015250505050565b6000612120826120e0565b61212a8185611c86565b935061213a8185602086016120eb565b61214381611431565b840191505092915050565b600061215a8383612115565b905092915050565b6000602082019050919050565b600061217a826120b4565b61218481856120bf565b935083602082028501612196856120d0565b8060005b858110156121d257848403895281516121b3858261214e565b94506121be83612162565b925060208a0199505060018101905061219a565b50829750879550505050505092915050565b600060a08201905081810360008301526121fe8188611fd5565b90508181036020830152612212818761216f565b90506122216040830186611862565b61222e60608301856113a2565b61223b60808301846113a2565b9695505050505050565b600082825260208201905092915050565b6000612261826120e0565b61226b8185612245565b935061227b8185602086016120eb565b61228481611431565b840191505092915050565b60006060820190506122a46000830186611862565b6122b160208301856113a2565b81810360408301526122c38184612256565b9050949350505050565b60008160e01c9050919050565b600060033d11156122f95760046000803e6122f66000516122cd565b90505b90565b600060443d106123895761230e6111e8565b60043d036004823e80513d602482011167ffffffffffffffff82111715612336575050612389565b808201805167ffffffffffffffff8111156123545750505050612389565b80602083010160043d038501811115612371575050505050612389565b61238082602001850186611471565b82955050505050505b90565b600081905092915050565b7f4f6e20636861696e3a207265766572746564207769746820726561736f6e0000600082015250565b60006123cd601e8361238c565b91506123d882612397565b601e82019050919050565b600081519050919050565b60006123f9826123e3565b612403818561238c565b93506124138185602086016120eb565b80840191505092915050565b600061242a826123c0565b915061243682846123ee565b915081905092915050565b600081519050919050565b600082825260208201905092915050565b6000819050602082019050919050565b60006124798383611cdb565b60208301905092915050565b6000602082019050919050565b600061249d82612441565b6124a7818561244c565b93506124b28361245d565b8060005b838110156124e35781516124ca888261246d565b97506124d583612485565b9250506001810190506124b6565b5085935050505092915050565b600081519050919050565b600082825260208201905092915050565b6000819050602082019050919050565b61252581611963565b82525050565b6000612537838361251c565b60208301905092915050565b6000602082019050919050565b600061255b826124f0565b61256581856124fb565b93506125708361250c565b8060005b838110156125a1578151612588888261252b565b975061259383612543565b925050600181019050612574565b5085935050505092915050565b600081519050919050565b600082825260208201905092915050565b6000819050602082019050919050565b600082825260208201905092915050565b60006125f6826123e3565b61260081856125da565b93506126108185602086016120eb565b61261981611431565b840191505092915050565b600061263083836125eb565b905092915050565b6000602082019050919050565b6000612650826125ae565b61265a81856125b9565b93508360208202850161266c856125ca565b8060005b858110156126a857848403895281516126898582612624565b945061269483612638565b925060208a01995050600181019050612670565b50829750879550505050505092915050565b600060a0820190506126cf6000830188611862565b6126dc60208301876113a2565b81810360408301526126ee8186612492565b905081810360608301526127028185612550565b905081810360808301526127168184612645565b90509695505050505050565b60006127356127308461151a565b6114a2565b90508281526020810184848401111561275157612750611515565b5b61275c8482856120eb565b509392505050565b600082601f830112612779576127786113cc565b5b8151612789848260208601612722565b91505092915050565b600061279d82611232565b9050919050565b6127ad81612792565b81146127b857600080fd5b50565b6000815190506127ca816127a4565b92915050565b6000815190506127df81611206565b92915050565b600061ffff82169050919050565b6127fc816127e5565b811461280757600080fd5b50565b600081519050612819816127f3565b92915050565b600080600080600080600080610100898b0312156128405761283f6111f2565b5b600089015167ffffffffffffffff81111561285e5761285d6111f7565b5b61286a8b828c01612764565b985050602061287b8b828c016127bb565b975050604061288c8b828c016127bb565b965050606061289d8b828c016127d0565b95505060806128ae8b828c0161280a565b94505060a06128bf8b828c016127d0565b93505060c06128d08b828c01611986565b92505060e06128e18b828c016127d0565b915050929598509295989093965056fe496e626f756e643a204d65737361676520616c72656164792063616e63656c6c6564496e626f756e643a20526563656970742077697468206e6f206576656e747320676976656e496e626f756e643a204d65737361676520616c72656164792064656c697665726564496e626f756e643a2046696e616c697479206e6f74207265616368656420666f72206d657373616765a26469706673582212207c8b9e2c6fd33bfe6766643587aa8908c8a7e02573d27f09e2523280a851b05964736f6c634300081b0033",
  "linkReferences": {},
  "deployedLinkReferences": {}
}